{
  "_format": "hh-sol-artifact-1",
  "contractName": "Wonderland_ZapIn_V1",
  "sourceName": "contracts/WonderZapIn.sol",
  "abi": [
    {
      "inputs": [],
      "stateMutability": "nonpayable",
      "type": "constructor"
    },
    {
      "anonymous": false,
      "inputs": [
        {
          "indexed": true,
          "internalType": "address",
          "name": "previousOwner",
          "type": "address"
        },
        {
          "indexed": true,
          "internalType": "address",
          "name": "newOwner",
          "type": "address"
        }
      ],
      "name": "OwnershipTransferred",
      "type": "event"
    },
    {
      "anonymous": false,
      "inputs": [
        {
          "indexed": false,
          "internalType": "address",
          "name": "sender",
          "type": "address"
        },
        {
          "indexed": false,
          "internalType": "address",
          "name": "pool",
          "type": "address"
        },
        {
          "indexed": false,
          "internalType": "uint256",
          "name": "tokensRec",
          "type": "uint256"
        }
      ],
      "name": "zapIn",
      "type": "event"
    },
    {
      "inputs": [
        {
          "internalType": "address",
          "name": "_FromTokenContractAddress",
          "type": "address"
        },
        {
          "internalType": "contract ITimeBondDepository",
          "name": "_bondDepository",
          "type": "address"
        },
        {
          "internalType": "uint256",
          "name": "_amount",
          "type": "uint256"
        },
        {
          "internalType": "uint256",
          "name": "_minReturnTokens",
          "type": "uint256"
        },
        {
          "internalType": "address",
          "name": "_swapTarget",
          "type": "address"
        },
        {
          "internalType": "bytes",
          "name": "swapData",
          "type": "bytes"
        },
        {
          "internalType": "uint256",
          "name": "_bondMaxPrice",
          "type": "uint256"
        },
        {
          "internalType": "address",
          "name": "_to",
          "type": "address"
        }
      ],
      "name": "ZapIn",
      "outputs": [
        {
          "internalType": "uint256",
          "name": "",
          "type": "uint256"
        }
      ],
      "stateMutability": "payable",
      "type": "function"
    },
    {
      "inputs": [
        {
          "internalType": "address",
          "name": "_FromTokenContractAddress",
          "type": "address"
        },
        {
          "internalType": "contract ITimeBondDepository",
          "name": "_bondDepository",
          "type": "address"
        },
        {
          "internalType": "uint256",
          "name": "_amount",
          "type": "uint256"
        },
        {
          "internalType": "uint256",
          "name": "_minPoolTokens",
          "type": "uint256"
        },
        {
          "internalType": "address",
          "name": "_swapTarget",
          "type": "address"
        },
        {
          "internalType": "bytes",
          "name": "swapData",
          "type": "bytes"
        },
        {
          "internalType": "bool",
          "name": "transferResidual",
          "type": "bool"
        },
        {
          "internalType": "uint256",
          "name": "_bondMaxPrice",
          "type": "uint256"
        },
        {
          "internalType": "address",
          "name": "_to",
          "type": "address"
        }
      ],
      "name": "ZapInLp",
      "outputs": [
        {
          "internalType": "uint256",
          "name": "",
          "type": "uint256"
        }
      ],
      "stateMutability": "payable",
      "type": "function"
    },
    {
      "inputs": [
        {
          "internalType": "address",
          "name": "bondDepository",
          "type": "address"
        },
        {
          "internalType": "address",
          "name": "pair",
          "type": "address"
        }
      ],
      "name": "addPairAddress",
      "outputs": [],
      "stateMutability": "nonpayable",
      "type": "function"
    },
    {
      "inputs": [
        {
          "internalType": "address",
          "name": "bondDepository",
          "type": "address"
        },
        {
          "internalType": "address",
          "name": "reserve",
          "type": "address"
        }
      ],
      "name": "addReserveAddress",
      "outputs": [],
      "stateMutability": "nonpayable",
      "type": "function"
    },
    {
      "inputs": [
        {
          "internalType": "contract ITimeBondDepository",
          "name": "",
          "type": "address"
        }
      ],
      "name": "allowedPairs",
      "outputs": [
        {
          "internalType": "address",
          "name": "",
          "type": "address"
        }
      ],
      "stateMutability": "view",
      "type": "function"
    },
    {
      "inputs": [
        {
          "internalType": "contract ITimeBondDepository",
          "name": "",
          "type": "address"
        }
      ],
      "name": "allowedReserves",
      "outputs": [
        {
          "internalType": "address",
          "name": "",
          "type": "address"
        }
      ],
      "stateMutability": "view",
      "type": "function"
    },
    {
      "inputs": [
        {
          "internalType": "address",
          "name": "",
          "type": "address"
        }
      ],
      "name": "approvedTargets",
      "outputs": [
        {
          "internalType": "bool",
          "name": "",
          "type": "bool"
        }
      ],
      "stateMutability": "view",
      "type": "function"
    },
    {
      "inputs": [],
      "name": "owner",
      "outputs": [
        {
          "internalType": "address",
          "name": "",
          "type": "address"
        }
      ],
      "stateMutability": "view",
      "type": "function"
    },
    {
      "inputs": [
        {
          "internalType": "address",
          "name": "bondDepository",
          "type": "address"
        }
      ],
      "name": "removePairAddress",
      "outputs": [],
      "stateMutability": "nonpayable",
      "type": "function"
    },
    {
      "inputs": [
        {
          "internalType": "address",
          "name": "bondDepository",
          "type": "address"
        }
      ],
      "name": "removeReserveAddress",
      "outputs": [],
      "stateMutability": "nonpayable",
      "type": "function"
    },
    {
      "inputs": [],
      "name": "renounceOwnership",
      "outputs": [],
      "stateMutability": "nonpayable",
      "type": "function"
    },
    {
      "inputs": [
        {
          "internalType": "address[]",
          "name": "targets",
          "type": "address[]"
        },
        {
          "internalType": "bool[]",
          "name": "isApproved",
          "type": "bool[]"
        }
      ],
      "name": "setApprovedTargets",
      "outputs": [],
      "stateMutability": "nonpayable",
      "type": "function"
    },
    {
      "inputs": [],
      "name": "stopped",
      "outputs": [
        {
          "internalType": "bool",
          "name": "",
          "type": "bool"
        }
      ],
      "stateMutability": "view",
      "type": "function"
    },
    {
      "inputs": [],
      "name": "toggleContractActive",
      "outputs": [],
      "stateMutability": "nonpayable",
      "type": "function"
    },
    {
      "inputs": [
        {
          "internalType": "address",
          "name": "newOwner",
          "type": "address"
        }
      ],
      "name": "transferOwnership",
      "outputs": [],
      "stateMutability": "nonpayable",
      "type": "function"
    },
    {
      "stateMutability": "payable",
      "type": "receive"
    }
  ],
  "bytecode": "0x608060405260008060146101000a81548160ff0219169083151502179055503480156200002b57600080fd5b5060006200003e620003e560201b60201c565b9050806000806101000a81548173ffffffffffffffffffffffffffffffffffffffff021916908373ffffffffffffffffffffffffffffffffffffffff1602179055508073ffffffffffffffffffffffffffffffffffffffff16600073ffffffffffffffffffffffffffffffffffffffff167f8be0079c531659141344cd1fd0a4f28419497f9722a3daafe3b4186f6b6457e060405160405180910390a350600180600073def1c0ded9bec7f1a1670819833240f027b25eff73ffffffffffffffffffffffffffffffffffffffff1673ffffffffffffffffffffffffffffffffffffffff16815260200190815260200160002060006101000a81548160ff02191690831515021790555073f64e1c5b6e17031f5504481ac8145f4c3eab49176002600073c26850686ce755ffb8690ea156e5a6cf03dcbde173ffffffffffffffffffffffffffffffffffffffff1673ffffffffffffffffffffffffffffffffffffffff16815260200190815260200160002060006101000a81548173ffffffffffffffffffffffffffffffffffffffff021916908373ffffffffffffffffffffffffffffffffffffffff16021790555073113f413371fc4cc4c9d6416cf1de9dfd7bf747df6002600073a184ae1a71ecad20e822cb965b99c287590c4ffe73ffffffffffffffffffffffffffffffffffffffff1673ffffffffffffffffffffffffffffffffffffffff16815260200190815260200160002060006101000a81548173ffffffffffffffffffffffffffffffffffffffff021916908373ffffffffffffffffffffffffffffffffffffffff16021790555073130966628846bfd36ff31a822705796e8cb8c18d6003600073694738e0a438d90487b4a549b201142c1a97b55673ffffffffffffffffffffffffffffffffffffffff1673ffffffffffffffffffffffffffffffffffffffff16815260200190815260200160002060006101000a81548173ffffffffffffffffffffffffffffffffffffffff021916908373ffffffffffffffffffffffffffffffffffffffff16021790555073b31f66aa3c1e785363f0875a1b74e27b85fd66c76003600073e02b1aa2c4be73093be79d763fdffc0e3cf6731873ffffffffffffffffffffffffffffffffffffffff1673ffffffffffffffffffffffffffffffffffffffff16815260200190815260200160002060006101000a81548173ffffffffffffffffffffffffffffffffffffffff021916908373ffffffffffffffffffffffffffffffffffffffff160217905550620003ed565b600033905090565b61485e80620003fd6000396000f3fe6080604052600436106100ec5760003560e01c80639779d1a61161008a578063ba3c763611610059578063ba3c763614610325578063d30af7ff14610362578063d30d2b0f1461039f578063f2fde38b146103cf57610162565b80639779d1a61461026657806397b2e854146102a3578063a2c33f88146102d3578063b3bb025f146102fc57610162565b806375f12b21116100c657806375f12b21146101be5780638da5cb5b146101e95780638ff4a0f1146102145780639735a6341461023d57610162565b80631385d24c146101675780632bc702841461017e578063715018a6146101a757610162565b36610162573273ffffffffffffffffffffffffffffffffffffffff163373ffffffffffffffffffffffffffffffffffffffff161415610160576040517f08c379a000000000000000000000000000000000000000000000000000000000815260040161015790614145565b60405180910390fd5b005b600080fd5b34801561017357600080fd5b5061017c6103f8565b005b34801561018a57600080fd5b506101a560048036038101906101a09190613527565b6104a0565b005b3480156101b357600080fd5b506101bc61067e565b005b3480156101ca57600080fd5b506101d36107b8565b6040516101e091906140c8565b60405180910390f35b3480156101f557600080fd5b506101fe6107cb565b60405161020b9190613fa6565b60405180910390f35b34801561022057600080fd5b5061023b600480360381019061023691906134d5565b6107f4565b005b34801561024957600080fd5b50610264600480360381019061025f9190613714565b610962565b005b34801561027257600080fd5b5061028d600480360381019061028891906134d5565b610b3f565b60405161029a91906140c8565b60405180910390f35b6102bd60048036038101906102b89190613563565b610b5f565b6040516102ca9190614365565b60405180910390f35b3480156102df57600080fd5b506102fa60048036038101906102f59190613527565b610f2c565b005b34801561030857600080fd5b50610323600480360381019061031e91906134d5565b61110a565b005b34801561033157600080fd5b5061034c6004803603810190610347919061381c565b611278565b6040516103599190613fa6565b60405180910390f35b34801561036e57600080fd5b506103896004803603810190610384919061381c565b6112ab565b6040516103969190613fa6565b60405180910390f35b6103b960048036038101906103b49190613646565b6112de565b6040516103c69190614365565b60405180910390f35b3480156103db57600080fd5b506103f660048036038101906103f191906134d5565b6116a9565b005b610400611852565b73ffffffffffffffffffffffffffffffffffffffff1661041e6107cb565b73ffffffffffffffffffffffffffffffffffffffff1614610474576040517f08c379a000000000000000000000000000000000000000000000000000000000815260040161046b90614265565b60405180910390fd5b600060149054906101000a900460ff1615600060146101000a81548160ff021916908315150217905550565b6104a8611852565b73ffffffffffffffffffffffffffffffffffffffff166104c66107cb565b73ffffffffffffffffffffffffffffffffffffffff161461051c576040517f08c379a000000000000000000000000000000000000000000000000000000000815260040161051390614265565b60405180910390fd5b600073ffffffffffffffffffffffffffffffffffffffff168273ffffffffffffffffffffffffffffffffffffffff16141561058c576040517f08c379a000000000000000000000000000000000000000000000000000000000815260040161058390614225565b60405180910390fd5b600073ffffffffffffffffffffffffffffffffffffffff168173ffffffffffffffffffffffffffffffffffffffff1614156105fc576040517f08c379a00000000000000000000000000000000000000000000000000000000081526004016105f390614225565b60405180910390fd5b80600360008473ffffffffffffffffffffffffffffffffffffffff1673ffffffffffffffffffffffffffffffffffffffff16815260200190815260200160002060006101000a81548173ffffffffffffffffffffffffffffffffffffffff021916908373ffffffffffffffffffffffffffffffffffffffff1602179055505050565b610686611852565b73ffffffffffffffffffffffffffffffffffffffff166106a46107cb565b73ffffffffffffffffffffffffffffffffffffffff16146106fa576040517f08c379a00000000000000000000000000000000000000000000000000000000081526004016106f190614265565b60405180910390fd5b600073ffffffffffffffffffffffffffffffffffffffff1660008054906101000a900473ffffffffffffffffffffffffffffffffffffffff1673ffffffffffffffffffffffffffffffffffffffff167f8be0079c531659141344cd1fd0a4f28419497f9722a3daafe3b4186f6b6457e060405160405180910390a360008060006101000a81548173ffffffffffffffffffffffffffffffffffffffff021916908373ffffffffffffffffffffffffffffffffffffffff160217905550565b600060149054906101000a900460ff1681565b60008060009054906101000a900473ffffffffffffffffffffffffffffffffffffffff16905090565b6107fc611852565b73ffffffffffffffffffffffffffffffffffffffff1661081a6107cb565b73ffffffffffffffffffffffffffffffffffffffff1614610870576040517f08c379a000000000000000000000000000000000000000000000000000000000815260040161086790614265565b60405180910390fd5b600073ffffffffffffffffffffffffffffffffffffffff168173ffffffffffffffffffffffffffffffffffffffff1614156108e0576040517f08c379a00000000000000000000000000000000000000000000000000000000081526004016108d790614225565b60405180910390fd5b6000600360008373ffffffffffffffffffffffffffffffffffffffff1673ffffffffffffffffffffffffffffffffffffffff16815260200190815260200160002060006101000a81548173ffffffffffffffffffffffffffffffffffffffff021916908373ffffffffffffffffffffffffffffffffffffffff16021790555050565b61096a611852565b73ffffffffffffffffffffffffffffffffffffffff166109886107cb565b73ffffffffffffffffffffffffffffffffffffffff16146109de576040517f08c379a00000000000000000000000000000000000000000000000000000000081526004016109d590614265565b60405180910390fd5b818190508484905014610a26576040517f08c379a0000000000000000000000000000000000000000000000000000000008152600401610a1d90614245565b60405180910390fd5b60005b84849050811015610b3857828282818110610a6d577f4e487b7100000000000000000000000000000000000000000000000000000000600052603260045260246000fd5b9050602002016020810190610a8291906137ca565b60016000878785818110610abf577f4e487b7100000000000000000000000000000000000000000000000000000000600052603260045260246000fd5b9050602002016020810190610ad491906134d5565b73ffffffffffffffffffffffffffffffffffffffff1673ffffffffffffffffffffffffffffffffffffffff16815260200190815260200160002060006101000a81548160ff0219169083151502179055508080610b30906146b7565b915050610a29565b5050505050565b60016020528060005260406000206000915054906101000a900460ff1681565b60008060149054906101000a900460ff1615610bb0576040517f08c379a0000000000000000000000000000000000000000000000000000000008152600401610ba790614125565b60405180910390fd5b600073ffffffffffffffffffffffffffffffffffffffff16600260008c73ffffffffffffffffffffffffffffffffffffffff1673ffffffffffffffffffffffffffffffffffffffff16815260200190815260200160002060009054906101000a900473ffffffffffffffffffffffffffffffffffffffff1673ffffffffffffffffffffffffffffffffffffffff161415610c7f576040517f08c379a0000000000000000000000000000000000000000000000000000000008152600401610c7690614225565b60405180910390fd5b6000610c8b8c8b61185a565b90506000610d408d600260008f73ffffffffffffffffffffffffffffffffffffffff1673ffffffffffffffffffffffffffffffffffffffff16815260200190815260200160002060009054906101000a900473ffffffffffffffffffffffffffffffffffffffff16848c8c8c8080601f016020809104026020016040519081016040528093929190818152602001838380828437600081840152601f19601f820116905080830192505050505050508b611998565b905089811015610d85576040517f08c379a0000000000000000000000000000000000000000000000000000000008152600401610d7c90614165565b60405180910390fd5b610def600260008e73ffffffffffffffffffffffffffffffffffffffff1673ffffffffffffffffffffffffffffffffffffffff16815260200190815260200160002060009054906101000a900473ffffffffffffffffffffffffffffffffffffffff168d83611a6d565b8b73ffffffffffffffffffffffffffffffffffffffff16638dbdbe6d8287876040518463ffffffff1660e01b8152600401610e2c939291906143da565b602060405180830381600087803b158015610e4657600080fd5b505af1158015610e5a573d6000803e3d6000fd5b505050506040513d601f19601f82011682018060405250810190610e7e9190613894565b507f7f31d76771556dce5ab39ba5b60664743da2629a75c474e9445734b7ad34087d33600260008f73ffffffffffffffffffffffffffffffffffffffff1673ffffffffffffffffffffffffffffffffffffffff16815260200190815260200160002060009054906101000a900473ffffffffffffffffffffffffffffffffffffffff1683604051610f1193929190613fea565b60405180910390a180925050509a9950505050505050505050565b610f34611852565b73ffffffffffffffffffffffffffffffffffffffff16610f526107cb565b73ffffffffffffffffffffffffffffffffffffffff1614610fa8576040517f08c379a0000000000000000000000000000000000000000000000000000000008152600401610f9f90614265565b60405180910390fd5b600073ffffffffffffffffffffffffffffffffffffffff168273ffffffffffffffffffffffffffffffffffffffff161415611018576040517f08c379a000000000000000000000000000000000000000000000000000000000815260040161100f90614225565b60405180910390fd5b600073ffffffffffffffffffffffffffffffffffffffff168173ffffffffffffffffffffffffffffffffffffffff161415611088576040517f08c379a000000000000000000000000000000000000000000000000000000000815260040161107f90614225565b60405180910390fd5b80600260008473ffffffffffffffffffffffffffffffffffffffff1673ffffffffffffffffffffffffffffffffffffffff16815260200190815260200160002060006101000a81548173ffffffffffffffffffffffffffffffffffffffff021916908373ffffffffffffffffffffffffffffffffffffffff1602179055505050565b611112611852565b73ffffffffffffffffffffffffffffffffffffffff166111306107cb565b73ffffffffffffffffffffffffffffffffffffffff1614611186576040517f08c379a000000000000000000000000000000000000000000000000000000000815260040161117d90614265565b60405180910390fd5b600073ffffffffffffffffffffffffffffffffffffffff168173ffffffffffffffffffffffffffffffffffffffff1614156111f6576040517f08c379a00000000000000000000000000000000000000000000000000000000081526004016111ed90614225565b60405180910390fd5b6000600260008373ffffffffffffffffffffffffffffffffffffffff1673ffffffffffffffffffffffffffffffffffffffff16815260200190815260200160002060006101000a81548173ffffffffffffffffffffffffffffffffffffffff021916908373ffffffffffffffffffffffffffffffffffffffff16021790555050565b60036020528060005260406000206000915054906101000a900473ffffffffffffffffffffffffffffffffffffffff1681565b60026020528060005260406000206000915054906101000a900473ffffffffffffffffffffffffffffffffffffffff1681565b60008060149054906101000a900460ff161561132f576040517f08c379a000000000000000000000000000000000000000000000000000000000815260040161132690614125565b60405180910390fd5b600073ffffffffffffffffffffffffffffffffffffffff16600360008b73ffffffffffffffffffffffffffffffffffffffff1673ffffffffffffffffffffffffffffffffffffffff16815260200190815260200160002060009054906101000a900473ffffffffffffffffffffffffffffffffffffffff1673ffffffffffffffffffffffffffffffffffffffff1614156113fe576040517f08c379a00000000000000000000000000000000000000000000000000000000081526004016113f590614225565b60405180910390fd5b600061140a8b8a61185a565b905060006114be8c600360008e73ffffffffffffffffffffffffffffffffffffffff1673ffffffffffffffffffffffffffffffffffffffff16815260200190815260200160002060009054906101000a900473ffffffffffffffffffffffffffffffffffffffff16848b8b8b8080601f016020809104026020016040519081016040528093929190818152602001838380828437600081840152601f19601f82011690508083019250505050505050611ac9565b905088811015611503576040517f08c379a00000000000000000000000000000000000000000000000000000000081526004016114fa90614165565b60405180910390fd5b61156d600360008d73ffffffffffffffffffffffffffffffffffffffff1673ffffffffffffffffffffffffffffffffffffffff16815260200190815260200160002060009054906101000a900473ffffffffffffffffffffffffffffffffffffffff168c83611a6d565b8a73ffffffffffffffffffffffffffffffffffffffff16638dbdbe6d8287876040518463ffffffff1660e01b81526004016115aa939291906143da565b602060405180830381600087803b1580156115c457600080fd5b505af11580156115d8573d6000803e3d6000fd5b505050506040513d601f19601f820116820180604052508101906115fc9190613894565b507f7f31d76771556dce5ab39ba5b60664743da2629a75c474e9445734b7ad34087d33600360008e73ffffffffffffffffffffffffffffffffffffffff1673ffffffffffffffffffffffffffffffffffffffff16815260200190815260200160002060009054906101000a900473ffffffffffffffffffffffffffffffffffffffff168360405161168f93929190613fea565b60405180910390a180925050509998505050505050505050565b6116b1611852565b73ffffffffffffffffffffffffffffffffffffffff166116cf6107cb565b73ffffffffffffffffffffffffffffffffffffffff1614611725576040517f08c379a000000000000000000000000000000000000000000000000000000000815260040161171c90614265565b60405180910390fd5b600073ffffffffffffffffffffffffffffffffffffffff168173ffffffffffffffffffffffffffffffffffffffff161415611795576040517f08c379a000000000000000000000000000000000000000000000000000000000815260040161178c90614185565b60405180910390fd5b8073ffffffffffffffffffffffffffffffffffffffff1660008054906101000a900473ffffffffffffffffffffffffffffffffffffffff1673ffffffffffffffffffffffffffffffffffffffff167f8be0079c531659141344cd1fd0a4f28419497f9722a3daafe3b4186f6b6457e060405160405180910390a3806000806101000a81548173ffffffffffffffffffffffffffffffffffffffff021916908373ffffffffffffffffffffffffffffffffffffffff16021790555050565b600033905090565b60008073ffffffffffffffffffffffffffffffffffffffff168373ffffffffffffffffffffffffffffffffffffffff1614156118db57600034116118d3576040517f08c379a00000000000000000000000000000000000000000000000000000000081526004016118ca90614205565b60405180910390fd5b349050611992565b6000821161191e576040517f08c379a0000000000000000000000000000000000000000000000000000000008152600401611915906141a5565b60405180910390fd5b60003414611961576040517f08c379a0000000000000000000000000000000000000000000000000000000008152600401611958906141c5565b60405180910390fd5b61198e3330848673ffffffffffffffffffffffffffffffffffffffff16611e8d909392919063ffffffff16565b8190505b92915050565b60008060008060006119a98a611f16565b915091508173ffffffffffffffffffffffffffffffffffffffff168b73ffffffffffffffffffffffffffffffffffffffff1614158015611a1557508073ffffffffffffffffffffffffffffffffffffffff168b73ffffffffffffffffffffffffffffffffffffffff1614155b15611a3457611a278b8b8b8b8b612024565b8094508195505050611a3b565b8a92508893505b600080611a4a8585858961255d565b91509150611a5b848484848c612773565b96505050505050509695505050505050565b611a998260008573ffffffffffffffffffffffffffffffffffffffff166129389092919063ffffffff16565b611ac482828573ffffffffffffffffffffffffffffffffffffffff166129389092919063ffffffff16565b505050565b600073b31f66aa3c1e785363f0875a1b74e27b85fd66c773ffffffffffffffffffffffffffffffffffffffff168373ffffffffffffffffffffffffffffffffffffffff161415611b905773b31f66aa3c1e785363f0875a1b74e27b85fd66c773ffffffffffffffffffffffffffffffffffffffff1663d0e30db0856040518263ffffffff1660e01b81526004016000604051808303818588803b158015611b6f57600080fd5b505af1158015611b83573d6000803e3d6000fd5b5050505050839050611e84565b60008073ffffffffffffffffffffffffffffffffffffffff168773ffffffffffffffffffffffffffffffffffffffff161415611bce57849050611bda565b611bd9878587611a6d565b5b600086905060008173ffffffffffffffffffffffffffffffffffffffff166370a08231306040518263ffffffff1660e01b8152600401611c1a9190613fa6565b60206040518083038186803b158015611c3257600080fd5b505afa158015611c46573d6000803e3d6000fd5b505050506040513d601f19601f82011682018060405250810190611c6a9190613894565b9050600160008773ffffffffffffffffffffffffffffffffffffffff1673ffffffffffffffffffffffffffffffffffffffff16815260200190815260200160002060009054906101000a900460ff16611cf8576040517f08c379a0000000000000000000000000000000000000000000000000000000008152600401611cef90614105565b60405180910390fd5b60008673ffffffffffffffffffffffffffffffffffffffff168487604051611d209190613f8f565b60006040518083038185875af1925050503d8060008114611d5d576040519150601f19603f3d011682016040523d82523d6000602084013e611d62565b606091505b5050905080611da6576040517f08c379a0000000000000000000000000000000000000000000000000000000008152600401611d9d906142a5565b60405180910390fd5b818373ffffffffffffffffffffffffffffffffffffffff166370a08231306040518263ffffffff1660e01b8152600401611de09190613fa6565b60206040518083038186803b158015611df857600080fd5b505afa158015611e0c573d6000803e3d6000fd5b505050506040513d601f19601f82011682018060405250810190611e309190613894565b611e3a91906145ba565b945060008511611e7f576040517f08c379a0000000000000000000000000000000000000000000000000000000008152600401611e7690614285565b60405180910390fd5b505050505b95945050505050565b611f10846323b872dd60e01b858585604051602401611eae93929190613fea565b604051602081830303815290604052907bffffffffffffffffffffffffffffffffffffffffffffffffffffffff19166020820180517bffffffffffffffffffffffffffffffffffffffffffffffffffffffff8381831617835250505050612a96565b50505050565b60008060008390508073ffffffffffffffffffffffffffffffffffffffff16630dfe16816040518163ffffffff1660e01b815260040160206040518083038186803b158015611f6457600080fd5b505afa158015611f78573d6000803e3d6000fd5b505050506040513d601f19601f82011682018060405250810190611f9c91906134fe565b92508073ffffffffffffffffffffffffffffffffffffffff1663d21220a76040518163ffffffff1660e01b815260040160206040518083038186803b158015611fe457600080fd5b505afa158015611ff8573d6000803e3d6000fd5b505050506040513d601f19601f8201168201806040525081019061201c91906134fe565b915050915091565b60008073b31f66aa3c1e785363f0875a1b74e27b85fd66c773ffffffffffffffffffffffffffffffffffffffff168473ffffffffffffffffffffffffffffffffffffffff1614156121035773b31f66aa3c1e785363f0875a1b74e27b85fd66c773ffffffffffffffffffffffffffffffffffffffff1663d0e30db0866040518263ffffffff1660e01b81526004016000604051808303818588803b1580156120cb57600080fd5b505af11580156120df573d6000803e3d6000fd5b50505050508473b31f66aa3c1e785363f0875a1b74e27b85fd66c791509150612553565b60008073ffffffffffffffffffffffffffffffffffffffff168873ffffffffffffffffffffffffffffffffffffffff1614156121415785905061214d565b61214c888688611a6d565b5b60008061215989611f16565b915091506000829050600082905060008273ffffffffffffffffffffffffffffffffffffffff166370a08231306040518263ffffffff1660e01b81526004016121a29190613fa6565b60206040518083038186803b1580156121ba57600080fd5b505afa1580156121ce573d6000803e3d6000fd5b505050506040513d601f19601f820116820180604052508101906121f29190613894565b905060008273ffffffffffffffffffffffffffffffffffffffff166370a08231306040518263ffffffff1660e01b815260040161222f9190613fa6565b60206040518083038186803b15801561224757600080fd5b505afa15801561225b573d6000803e3d6000fd5b505050506040513d601f19601f8201168201806040525081019061227f9190613894565b9050600160008c73ffffffffffffffffffffffffffffffffffffffff1673ffffffffffffffffffffffffffffffffffffffff16815260200190815260200160002060009054906101000a900460ff1661230d576040517f08c379a000000000000000000000000000000000000000000000000000000000815260040161230490614105565b60405180910390fd5b60008b73ffffffffffffffffffffffffffffffffffffffff16888c6040516123359190613f8f565b60006040518083038185875af1925050503d8060008114612372576040519150601f19603f3d011682016040523d82523d6000602084013e612377565b606091505b50509050806123bb576040517f08c379a00000000000000000000000000000000000000000000000000000000081526004016123b2906142a5565b60405180910390fd5b6000838673ffffffffffffffffffffffffffffffffffffffff166370a08231306040518263ffffffff1660e01b81526004016123f79190613fa6565b60206040518083038186803b15801561240f57600080fd5b505afa158015612423573d6000803e3d6000fd5b505050506040513d601f19601f820116820180604052508101906124479190613894565b61245191906145ba565b90506000838673ffffffffffffffffffffffffffffffffffffffff166370a08231306040518263ffffffff1660e01b815260040161248f9190613fa6565b60206040518083038186803b1580156124a757600080fd5b505afa1580156124bb573d6000803e3d6000fd5b505050506040513d601f19601f820116820180604052508101906124df9190613894565b6124e991906145ba565b9050808211156124fe57819b50889a50612505565b809b50879a505b60008c11612548576040517f08c379a000000000000000000000000000000000000000000000000000000000815260040161253f906142c5565b60405180910390fd5b505050505050505050505b9550959350505050565b6000806000739ad6c38be94206ca50bb0d90783181662f0cfa1073ffffffffffffffffffffffffffffffffffffffff1663e6a4390587876040518363ffffffff1660e01b81526004016125b1929190613fc1565b60206040518083038186803b1580156125c957600080fd5b505afa1580156125dd573d6000803e3d6000fd5b505050506040513d601f19601f8201168201806040525081019061260191906134fe565b90506000808273ffffffffffffffffffffffffffffffffffffffff16630902f1ac6040518163ffffffff1660e01b815260040160606040518083038186803b15801561264c57600080fd5b505afa158015612660573d6000803e3d6000fd5b505050506040513d601f19601f820116820180604052508101906126849190613845565b506dffffffffffffffffffffffffffff1691506dffffffffffffffffffffffffffff1691508773ffffffffffffffffffffffffffffffffffffffff168973ffffffffffffffffffffffffffffffffffffffff1614156127245760006126e98388612b5d565b90506000811161270357600287612700919061452f565b90505b61270e8a8983612bc7565b9450808761271c91906145ba565b955050612767565b60006127308288612b5d565b90506000811161274a57600287612747919061452f565b90505b6127558a8a83612bc7565b9550808761276391906145ba565b9450505b50505094509492505050565b6000612794867360ae616a2155ee3d9a68541ba4544862310933d486611a6d565b6127b3857360ae616a2155ee3d9a68541ba4544862310933d485611a6d565b60008060007360ae616a2155ee3d9a68541ba4544862310933d473ffffffffffffffffffffffffffffffffffffffff1663e8e337008a8a8a8a600180307ff0000000000000000000000000000000000000000000000000000000000000006040518963ffffffff1660e01b8152600401612834989796959493929190614021565b606060405180830381600087803b15801561284e57600080fd5b505af1158015612862573d6000803e3d6000fd5b505050506040513d601f19601f8201168201806040525081019061288691906138bd565b925092509250841561292957600083886128a091906145ba565b11156128dd576128dc3384896128b691906145ba565b8b73ffffffffffffffffffffffffffffffffffffffff16612ffe9092919063ffffffff16565b5b600082876128eb91906145ba565b11156129285761292733838861290191906145ba565b8a73ffffffffffffffffffffffffffffffffffffffff16612ffe9092919063ffffffff16565b5b5b80935050505095945050505050565b60008114806129d1575060008373ffffffffffffffffffffffffffffffffffffffff1663dd62ed3e30856040518363ffffffff1660e01b815260040161297f929190613fc1565b60206040518083038186803b15801561299757600080fd5b505afa1580156129ab573d6000803e3d6000fd5b505050506040513d601f19601f820116820180604052508101906129cf9190613894565b145b612a10576040517f08c379a0000000000000000000000000000000000000000000000000000000008152600401612a0790614345565b60405180910390fd5b612a918363095ea7b360e01b8484604051602401612a2f92919061409f565b604051602081830303815290604052907bffffffffffffffffffffffffffffffffffffffffffffffffffffffff19166020820180517bffffffffffffffffffffffffffffffffffffffffffffffffffffffff8381831617835250505050612a96565b505050565b6000612af8826040518060400160405280602081526020017f5361666545524332303a206c6f772d6c6576656c2063616c6c206661696c65648152508573ffffffffffffffffffffffffffffffffffffffff166130849092919063ffffffff16565b9050600081511115612b585780806020019051810190612b1891906137f3565b612b57576040517f08c379a0000000000000000000000000000000000000000000000000000000008152600401612b4e90614325565b60405180910390fd5b5b505050565b60006107ca6107cd84612b709190614560565b612bab623cda2986612b829190614560565b623cda2086612b919190614560565b612b9b91906144d9565b86612ba69190614560565b61309c565b612bb591906145ba565b612bbf919061452f565b905092915050565b60008273ffffffffffffffffffffffffffffffffffffffff168473ffffffffffffffffffffffffffffffffffffffff161415612c0557819050612ff7565b612c24847360ae616a2155ee3d9a68541ba4544862310933d484611a6d565b6000739ad6c38be94206ca50bb0d90783181662f0cfa1073ffffffffffffffffffffffffffffffffffffffff1663e6a4390586866040518363ffffffff1660e01b8152600401612c75929190613fc1565b60206040518083038186803b158015612c8d57600080fd5b505afa158015612ca1573d6000803e3d6000fd5b505050506040513d601f19601f82011682018060405250810190612cc591906134fe565b9050600073ffffffffffffffffffffffffffffffffffffffff168173ffffffffffffffffffffffffffffffffffffffff161415612d37576040517f08c379a0000000000000000000000000000000000000000000000000000000008152600401612d2e90614305565b60405180910390fd5b6000600267ffffffffffffffff811115612d7a577f4e487b7100000000000000000000000000000000000000000000000000000000600052604160045260246000fd5b604051908082528060200260200182016040528015612da85781602001602082028036833780820191505090505b5090508581600081518110612de6577f4e487b7100000000000000000000000000000000000000000000000000000000600052603260045260246000fd5b602002602001019073ffffffffffffffffffffffffffffffffffffffff16908173ffffffffffffffffffffffffffffffffffffffff16815250508481600181518110612e5b577f4e487b7100000000000000000000000000000000000000000000000000000000600052603260045260246000fd5b602002602001019073ffffffffffffffffffffffffffffffffffffffff16908173ffffffffffffffffffffffffffffffffffffffff16815250507360ae616a2155ee3d9a68541ba4544862310933d473ffffffffffffffffffffffffffffffffffffffff166338ed173985600184307ff0000000000000000000000000000000000000000000000000000000000000006040518663ffffffff1660e01b8152600401612f0b959493929190614380565b600060405180830381600087803b158015612f2557600080fd5b505af1158015612f39573d6000803e3d6000fd5b505050506040513d6000823e3d601f19601f82011682018060405250810190612f629190613789565b60018251612f7091906145ba565b81518110612fa7577f4e487b7100000000000000000000000000000000000000000000000000000000600052603260045260246000fd5b6020026020010151925060008311612ff4576040517f08c379a0000000000000000000000000000000000000000000000000000000008152600401612feb90614285565b60405180910390fd5b50505b9392505050565b61307f8363a9059cbb60e01b848460405160240161301d92919061409f565b604051602081830303815290604052907bffffffffffffffffffffffffffffffffffffffffffffffffffffffff19166020820180517bffffffffffffffffffffffffffffffffffffffffffffffffffffffff8381831617835250505050612a96565b505050565b60606130938484600085613116565b90509392505050565b6000600382111561310357819050600060016002846130bb919061452f565b6130c591906144d9565b90505b818110156130fd5780915060028182856130e2919061452f565b6130ec91906144d9565b6130f6919061452f565b90506130c8565b50613111565b6000821461311057600190505b5b919050565b60608247101561315b576040517f08c379a0000000000000000000000000000000000000000000000000000000008152600401613152906141e5565b60405180910390fd5b6131648561322a565b6131a3576040517f08c379a000000000000000000000000000000000000000000000000000000000815260040161319a906142e5565b60405180910390fd5b6000808673ffffffffffffffffffffffffffffffffffffffff1685876040516131cc9190613f8f565b60006040518083038185875af1925050503d8060008114613209576040519150601f19603f3d011682016040523d82523d6000602084013e61320e565b606091505b509150915061321e82828661323d565b92505050949350505050565b600080823b905060008111915050919050565b6060831561324d5782905061329d565b6000835111156132605782518084602001fd5b816040517f08c379a000000000000000000000000000000000000000000000000000000000815260040161329491906140e3565b60405180910390fd5b9392505050565b60006132b76132b284614442565b614411565b905080838252602082019050828560208602820111156132d657600080fd5b60005b8581101561330657816132ec88826134ab565b8452602084019350602083019250506001810190506132d9565b5050509392505050565b60008135905061331f8161479e565b92915050565b6000815190506133348161479e565b92915050565b60008083601f84011261334c57600080fd5b8235905067ffffffffffffffff81111561336557600080fd5b60208301915083602082028301111561337d57600080fd5b9250929050565b60008083601f84011261339657600080fd5b8235905067ffffffffffffffff8111156133af57600080fd5b6020830191508360208202830111156133c757600080fd5b9250929050565b600082601f8301126133df57600080fd5b81516133ef8482602086016132a4565b91505092915050565b600081359050613407816147b5565b92915050565b60008151905061341c816147b5565b92915050565b60008083601f84011261343457600080fd5b8235905067ffffffffffffffff81111561344d57600080fd5b60208301915083600182028301111561346557600080fd5b9250929050565b60008135905061347b816147cc565b92915050565b600081519050613490816147e3565b92915050565b6000813590506134a5816147fa565b92915050565b6000815190506134ba816147fa565b92915050565b6000815190506134cf81614811565b92915050565b6000602082840312156134e757600080fd5b60006134f584828501613310565b91505092915050565b60006020828403121561351057600080fd5b600061351e84828501613325565b91505092915050565b6000806040838503121561353a57600080fd5b600061354885828601613310565b925050602061355985828601613310565b9150509250929050565b6000806000806000806000806000806101208b8d03121561358357600080fd5b60006135918d828e01613310565b9a505060206135a28d828e0161346c565b99505060406135b38d828e01613496565b98505060606135c48d828e01613496565b97505060806135d58d828e01613310565b96505060a08b013567ffffffffffffffff8111156135f257600080fd5b6135fe8d828e01613422565b955095505060c06136118d828e016133f8565b93505060e06136228d828e01613496565b9250506101006136348d828e01613310565b9150509295989b9194979a5092959850565b60008060008060008060008060006101008a8c03121561366557600080fd5b60006136738c828d01613310565b99505060206136848c828d0161346c565b98505060406136958c828d01613496565b97505060606136a68c828d01613496565b96505060806136b78c828d01613310565b95505060a08a013567ffffffffffffffff8111156136d457600080fd5b6136e08c828d01613422565b945094505060c06136f38c828d01613496565b92505060e06137048c828d01613310565b9150509295985092959850929598565b6000806000806040858703121561372a57600080fd5b600085013567ffffffffffffffff81111561374457600080fd5b6137508782880161333a565b9450945050602085013567ffffffffffffffff81111561376f57600080fd5b61377b87828801613384565b925092505092959194509250565b60006020828403121561379b57600080fd5b600082015167ffffffffffffffff8111156137b557600080fd5b6137c1848285016133ce565b91505092915050565b6000602082840312156137dc57600080fd5b60006137ea848285016133f8565b91505092915050565b60006020828403121561380557600080fd5b60006138138482850161340d565b91505092915050565b60006020828403121561382e57600080fd5b600061383c8482850161346c565b91505092915050565b60008060006060848603121561385a57600080fd5b600061386886828701613481565b935050602061387986828701613481565b925050604061388a868287016134c0565b9150509250925092565b6000602082840312156138a657600080fd5b60006138b4848285016134ab565b91505092915050565b6000806000606084860312156138d257600080fd5b60006138e0868287016134ab565b93505060206138f1868287016134ab565b9250506040613902868287016134ab565b9150509250925092565b60006139188383613924565b60208301905092915050565b61392d816145ee565b82525050565b61393c816145ee565b82525050565b600061394d8261447e565b61395781856144ac565b93506139628361446e565b8060005b8381101561399357815161397a888261390c565b97506139858361449f565b925050600181019050613966565b5085935050505092915050565b6139a981614600565b82525050565b60006139ba82614489565b6139c481856144bd565b93506139d4818560208601614684565b80840191505092915050565b6139e981614672565b82525050565b60006139fa82614494565b613a0481856144c8565b9350613a14818560208601614684565b613a1d8161478d565b840191505092915050565b6000613a356015836144c8565b91507f546172676574206e6f7420417574686f72697a656400000000000000000000006000830152602082019050919050565b6000613a756006836144c8565b91507f50617573656400000000000000000000000000000000000000000000000000006000830152602082019050919050565b6000613ab56018836144c8565b91507f446f206e6f742073656e6420455448206469726563746c7900000000000000006000830152602082019050919050565b6000613af5600d836144c8565b91507f4869676820536c697070616765000000000000000000000000000000000000006000830152602082019050919050565b6000613b356026836144c8565b91507f4f776e61626c653a206e6577206f776e657220697320746865207a65726f206160008301527f64647265737300000000000000000000000000000000000000000000000000006020830152604082019050919050565b6000613b9b6014836144c8565b91507f496e76616c696420746f6b656e20616d6f756e740000000000000000000000006000830152602082019050919050565b6000613bdb6013836144c8565b91507f4574682073656e74207769746820746f6b656e000000000000000000000000006000830152602082019050919050565b6000613c1b6026836144c8565b91507f416464726573733a20696e73756666696369656e742062616c616e636520666f60008301527f722063616c6c00000000000000000000000000000000000000000000000000006020830152604082019050919050565b6000613c81600b836144c8565b91507f4e6f206574682073656e740000000000000000000000000000000000000000006000830152602082019050919050565b6000613cc16003836144c8565b91507f424e4100000000000000000000000000000000000000000000000000000000006000830152602082019050919050565b6000613d016014836144c8565b91507f496e76616c696420496e707574206c656e6774680000000000000000000000006000830152602082019050919050565b6000613d416020836144c8565b91507f4f776e61626c653a2063616c6c6572206973206e6f7420746865206f776e65726000830152602082019050919050565b6000613d816017836144c8565b91507f4572726f72205377617070696e6720546f6b656e7320320000000000000000006000830152602082019050919050565b6000613dc16017836144c8565b91507f4572726f72205377617070696e6720546f6b656e7320310000000000000000006000830152602082019050919050565b6000613e01601f836144c8565b91507f5377617070656420746f20496e76616c696420496e7465726d656469617465006000830152602082019050919050565b6000613e41601d836144c8565b91507f416464726573733a2063616c6c20746f206e6f6e2d636f6e74726163740000006000830152602082019050919050565b6000613e816011836144c8565b91507f4e6f205377617020417661696c61626c650000000000000000000000000000006000830152602082019050919050565b6000613ec1602a836144c8565b91507f5361666545524332303a204552433230206f7065726174696f6e20646964206e60008301527f6f742073756363656564000000000000000000000000000000000000000000006020830152604082019050919050565b6000613f276036836144c8565b91507f5361666545524332303a20617070726f76652066726f6d206e6f6e2d7a65726f60008301527f20746f206e6f6e2d7a65726f20616c6c6f77616e6365000000000000000000006020830152604082019050919050565b613f8981614658565b82525050565b6000613f9b82846139af565b915081905092915050565b6000602082019050613fbb6000830184613933565b92915050565b6000604082019050613fd66000830185613933565b613fe36020830184613933565b9392505050565b6000606082019050613fff6000830186613933565b61400c6020830185613933565b6140196040830184613f80565b949350505050565b600061010082019050614037600083018b613933565b614044602083018a613933565b6140516040830189613f80565b61405e6060830188613f80565b61406b60808301876139e0565b61407860a08301866139e0565b61408560c0830185613933565b61409260e0830184613f80565b9998505050505050505050565b60006040820190506140b46000830185613933565b6140c16020830184613f80565b9392505050565b60006020820190506140dd60008301846139a0565b92915050565b600060208201905081810360008301526140fd81846139ef565b905092915050565b6000602082019050818103600083015261411e81613a28565b9050919050565b6000602082019050818103600083015261413e81613a68565b9050919050565b6000602082019050818103600083015261415e81613aa8565b9050919050565b6000602082019050818103600083015261417e81613ae8565b9050919050565b6000602082019050818103600083015261419e81613b28565b9050919050565b600060208201905081810360008301526141be81613b8e565b9050919050565b600060208201905081810360008301526141de81613bce565b9050919050565b600060208201905081810360008301526141fe81613c0e565b9050919050565b6000602082019050818103600083015261421e81613c74565b9050919050565b6000602082019050818103600083015261423e81613cb4565b9050919050565b6000602082019050818103600083015261425e81613cf4565b9050919050565b6000602082019050818103600083015261427e81613d34565b9050919050565b6000602082019050818103600083015261429e81613d74565b9050919050565b600060208201905081810360008301526142be81613db4565b9050919050565b600060208201905081810360008301526142de81613df4565b9050919050565b600060208201905081810360008301526142fe81613e34565b9050919050565b6000602082019050818103600083015261431e81613e74565b9050919050565b6000602082019050818103600083015261433e81613eb4565b9050919050565b6000602082019050818103600083015261435e81613f1a565b9050919050565b600060208201905061437a6000830184613f80565b92915050565b600060a0820190506143956000830188613f80565b6143a260208301876139e0565b81810360408301526143b48186613942565b90506143c36060830185613933565b6143d06080830184613f80565b9695505050505050565b60006060820190506143ef6000830186613f80565b6143fc6020830185613f80565b6144096040830184613933565b949350505050565b6000604051905081810181811067ffffffffffffffff821117156144385761443761475e565b5b8060405250919050565b600067ffffffffffffffff82111561445d5761445c61475e565b5b602082029050602081019050919050565b6000819050602082019050919050565b600081519050919050565b600081519050919050565b600081519050919050565b6000602082019050919050565b600082825260208201905092915050565b600081905092915050565b600082825260208201905092915050565b60006144e482614658565b91506144ef83614658565b9250827fffffffffffffffffffffffffffffffffffffffffffffffffffffffffffffffff0382111561452457614523614700565b5b828201905092915050565b600061453a82614658565b915061454583614658565b9250826145555761455461472f565b5b828204905092915050565b600061456b82614658565b915061457683614658565b9250817fffffffffffffffffffffffffffffffffffffffffffffffffffffffffffffffff04831182151516156145af576145ae614700565b5b828202905092915050565b60006145c582614658565b91506145d083614658565b9250828210156145e3576145e2614700565b5b828203905092915050565b60006145f982614638565b9050919050565b60008115159050919050565b6000614617826145ee565b9050919050565b60006dffffffffffffffffffffffffffff82169050919050565b600073ffffffffffffffffffffffffffffffffffffffff82169050919050565b6000819050919050565b600063ffffffff82169050919050565b600061467d82614658565b9050919050565b60005b838110156146a2578082015181840152602081019050614687565b838111156146b1576000848401525b50505050565b60006146c282614658565b91507fffffffffffffffffffffffffffffffffffffffffffffffffffffffffffffffff8214156146f5576146f4614700565b5b600182019050919050565b7f4e487b7100000000000000000000000000000000000000000000000000000000600052601160045260246000fd5b7f4e487b7100000000000000000000000000000000000000000000000000000000600052601260045260246000fd5b7f4e487b7100000000000000000000000000000000000000000000000000000000600052604160045260246000fd5b6000601f19601f8301169050919050565b6147a7816145ee565b81146147b257600080fd5b50565b6147be81614600565b81146147c957600080fd5b50565b6147d58161460c565b81146147e057600080fd5b50565b6147ec8161461e565b81146147f757600080fd5b50565b61480381614658565b811461480e57600080fd5b50565b61481a81614662565b811461482557600080fd5b5056fea26469706673582212201a04a241877f4aaed3d3c6a8236def69c556ddda1056228de255fcec5a117d3e64736f6c63430008000033",
  "linkReferences": {},
  "deployedLinkReferences": {}
}