{
  "_format": "hh-sol-artifact-1",
  "contractName": "TimeBondDepository",
  "sourceName": "contracts/BondDepository.sol",
  "abi": [
    {
      "inputs": [
        {
          "internalType": "address",
          "name": "_Time",
          "type": "address"
        },
        {
          "internalType": "address",
          "name": "_principle",
          "type": "address"
        },
        {
          "internalType": "address",
          "name": "_treasury",
          "type": "address"
        },
        {
          "internalType": "address",
          "name": "_DAO",
          "type": "address"
        },
        {
          "internalType": "address",
          "name": "_bondCalculator",
          "type": "address"
        }
      ],
      "stateMutability": "nonpayable",
      "type": "constructor"
    },
    {
      "anonymous": false,
      "inputs": [
        {
          "indexed": false,
          "internalType": "uint256",
          "name": "deposit",
          "type": "uint256"
        },
        {
          "indexed": true,
          "internalType": "uint256",
          "name": "payout",
          "type": "uint256"
        },
        {
          "indexed": true,
          "internalType": "uint256",
          "name": "expires",
          "type": "uint256"
        },
        {
          "indexed": true,
          "internalType": "uint256",
          "name": "priceInUSD",
          "type": "uint256"
        }
      ],
      "name": "BondCreated",
      "type": "event"
    },
    {
      "anonymous": false,
      "inputs": [
        {
          "indexed": true,
          "internalType": "uint256",
          "name": "priceInUSD",
          "type": "uint256"
        },
        {
          "indexed": true,
          "internalType": "uint256",
          "name": "internalPrice",
          "type": "uint256"
        },
        {
          "indexed": true,
          "internalType": "uint256",
          "name": "debtRatio",
          "type": "uint256"
        }
      ],
      "name": "BondPriceChanged",
      "type": "event"
    },
    {
      "anonymous": false,
      "inputs": [
        {
          "indexed": true,
          "internalType": "address",
          "name": "recipient",
          "type": "address"
        },
        {
          "indexed": false,
          "internalType": "uint256",
          "name": "payout",
          "type": "uint256"
        },
        {
          "indexed": false,
          "internalType": "uint256",
          "name": "remaining",
          "type": "uint256"
        }
      ],
      "name": "BondRedeemed",
      "type": "event"
    },
    {
      "anonymous": false,
      "inputs": [
        {
          "indexed": false,
          "internalType": "uint256",
          "name": "initialBCV",
          "type": "uint256"
        },
        {
          "indexed": false,
          "internalType": "uint256",
          "name": "newBCV",
          "type": "uint256"
        },
        {
          "indexed": false,
          "internalType": "uint256",
          "name": "adjustment",
          "type": "uint256"
        },
        {
          "indexed": false,
          "internalType": "bool",
          "name": "addition",
          "type": "bool"
        }
      ],
      "name": "ControlVariableAdjustment",
      "type": "event"
    },
    {
      "anonymous": false,
      "inputs": [
        {
          "indexed": true,
          "internalType": "address",
          "name": "previousOwner",
          "type": "address"
        },
        {
          "indexed": true,
          "internalType": "address",
          "name": "newOwner",
          "type": "address"
        }
      ],
      "name": "OwnershipPulled",
      "type": "event"
    },
    {
      "anonymous": false,
      "inputs": [
        {
          "indexed": true,
          "internalType": "address",
          "name": "previousOwner",
          "type": "address"
        },
        {
          "indexed": true,
          "internalType": "address",
          "name": "newOwner",
          "type": "address"
        }
      ],
      "name": "OwnershipPushed",
      "type": "event"
    },
    {
      "inputs": [],
      "name": "DAO",
      "outputs": [
        {
          "internalType": "address",
          "name": "",
          "type": "address"
        }
      ],
      "stateMutability": "view",
      "type": "function"
    },
    {
      "inputs": [],
      "name": "Time",
      "outputs": [
        {
          "internalType": "address",
          "name": "",
          "type": "address"
        }
      ],
      "stateMutability": "view",
      "type": "function"
    },
    {
      "inputs": [],
      "name": "adjustment",
      "outputs": [
        {
          "internalType": "bool",
          "name": "add",
          "type": "bool"
        },
        {
          "internalType": "uint256",
          "name": "rate",
          "type": "uint256"
        },
        {
          "internalType": "uint256",
          "name": "target",
          "type": "uint256"
        },
        {
          "internalType": "uint32",
          "name": "buffer",
          "type": "uint32"
        },
        {
          "internalType": "uint32",
          "name": "lastTime",
          "type": "uint32"
        }
      ],
      "stateMutability": "view",
      "type": "function"
    },
    {
      "inputs": [],
      "name": "bondCalculator",
      "outputs": [
        {
          "internalType": "address",
          "name": "",
          "type": "address"
        }
      ],
      "stateMutability": "view",
      "type": "function"
    },
    {
      "inputs": [
        {
          "internalType": "address",
          "name": "",
          "type": "address"
        }
      ],
      "name": "bondInfo",
      "outputs": [
        {
          "internalType": "uint256",
          "name": "payout",
          "type": "uint256"
        },
        {
          "internalType": "uint256",
          "name": "pricePaid",
          "type": "uint256"
        },
        {
          "internalType": "uint32",
          "name": "lastTime",
          "type": "uint32"
        },
        {
          "internalType": "uint32",
          "name": "vesting",
          "type": "uint32"
        }
      ],
      "stateMutability": "view",
      "type": "function"
    },
    {
      "inputs": [],
      "name": "bondPrice",
      "outputs": [
        {
          "internalType": "uint256",
          "name": "price_",
          "type": "uint256"
        }
      ],
      "stateMutability": "view",
      "type": "function"
    },
    {
      "inputs": [],
      "name": "bondPriceInUSD",
      "outputs": [
        {
          "internalType": "uint256",
          "name": "price_",
          "type": "uint256"
        }
      ],
      "stateMutability": "view",
      "type": "function"
    },
    {
      "inputs": [],
      "name": "currentDebt",
      "outputs": [
        {
          "internalType": "uint256",
          "name": "",
          "type": "uint256"
        }
      ],
      "stateMutability": "view",
      "type": "function"
    },
    {
      "inputs": [],
      "name": "debtDecay",
      "outputs": [
        {
          "internalType": "uint256",
          "name": "decay_",
          "type": "uint256"
        }
      ],
      "stateMutability": "view",
      "type": "function"
    },
    {
      "inputs": [],
      "name": "debtRatio",
      "outputs": [
        {
          "internalType": "uint256",
          "name": "debtRatio_",
          "type": "uint256"
        }
      ],
      "stateMutability": "view",
      "type": "function"
    },
    {
      "inputs": [
        {
          "internalType": "uint256",
          "name": "_amount",
          "type": "uint256"
        },
        {
          "internalType": "uint256",
          "name": "_maxPrice",
          "type": "uint256"
        },
        {
          "internalType": "address",
          "name": "_depositor",
          "type": "address"
        }
      ],
      "name": "deposit",
      "outputs": [
        {
          "internalType": "uint256",
          "name": "",
          "type": "uint256"
        }
      ],
      "stateMutability": "nonpayable",
      "type": "function"
    },
    {
      "inputs": [
        {
          "internalType": "uint256",
          "name": "_controlVariable",
          "type": "uint256"
        },
        {
          "internalType": "uint256",
          "name": "_minimumPrice",
          "type": "uint256"
        },
        {
          "internalType": "uint256",
          "name": "_maxPayout",
          "type": "uint256"
        },
        {
          "internalType": "uint256",
          "name": "_fee",
          "type": "uint256"
        },
        {
          "internalType": "uint256",
          "name": "_maxDebt",
          "type": "uint256"
        },
        {
          "internalType": "uint256",
          "name": "_initialDebt",
          "type": "uint256"
        },
        {
          "internalType": "uint32",
          "name": "_vestingTerm",
          "type": "uint32"
        }
      ],
      "name": "initializeBondTerms",
      "outputs": [],
      "stateMutability": "nonpayable",
      "type": "function"
    },
    {
      "inputs": [],
      "name": "isLiquidityBond",
      "outputs": [
        {
          "internalType": "bool",
          "name": "",
          "type": "bool"
        }
      ],
      "stateMutability": "view",
      "type": "function"
    },
    {
      "inputs": [],
      "name": "lastDecay",
      "outputs": [
        {
          "internalType": "uint32",
          "name": "",
          "type": "uint32"
        }
      ],
      "stateMutability": "view",
      "type": "function"
    },
    {
      "inputs": [],
      "name": "maxPayout",
      "outputs": [
        {
          "internalType": "uint256",
          "name": "",
          "type": "uint256"
        }
      ],
      "stateMutability": "view",
      "type": "function"
    },
    {
      "inputs": [
        {
          "internalType": "uint256",
          "name": "_value",
          "type": "uint256"
        }
      ],
      "name": "payoutFor",
      "outputs": [
        {
          "internalType": "uint256",
          "name": "",
          "type": "uint256"
        }
      ],
      "stateMutability": "view",
      "type": "function"
    },
    {
      "inputs": [
        {
          "internalType": "address",
          "name": "_depositor",
          "type": "address"
        }
      ],
      "name": "pendingPayoutFor",
      "outputs": [
        {
          "internalType": "uint256",
          "name": "pendingPayout_",
          "type": "uint256"
        }
      ],
      "stateMutability": "view",
      "type": "function"
    },
    {
      "inputs": [
        {
          "internalType": "address",
          "name": "_depositor",
          "type": "address"
        }
      ],
      "name": "percentVestedFor",
      "outputs": [
        {
          "internalType": "uint256",
          "name": "percentVested_",
          "type": "uint256"
        }
      ],
      "stateMutability": "view",
      "type": "function"
    },
    {
      "inputs": [],
      "name": "policy",
      "outputs": [
        {
          "internalType": "address",
          "name": "",
          "type": "address"
        }
      ],
      "stateMutability": "view",
      "type": "function"
    },
    {
      "inputs": [],
      "name": "principle",
      "outputs": [
        {
          "internalType": "address",
          "name": "",
          "type": "address"
        }
      ],
      "stateMutability": "view",
      "type": "function"
    },
    {
      "inputs": [],
      "name": "pullManagement",
      "outputs": [],
      "stateMutability": "nonpayable",
      "type": "function"
    },
    {
      "inputs": [
        {
          "internalType": "address",
          "name": "newOwner_",
          "type": "address"
        }
      ],
      "name": "pushManagement",
      "outputs": [],
      "stateMutability": "nonpayable",
      "type": "function"
    },
    {
      "inputs": [
        {
          "internalType": "address",
          "name": "_token",
          "type": "address"
        }
      ],
      "name": "recoverLostToken",
      "outputs": [
        {
          "internalType": "bool",
          "name": "",
          "type": "bool"
        }
      ],
      "stateMutability": "nonpayable",
      "type": "function"
    },
    {
      "inputs": [
        {
          "internalType": "address",
          "name": "_recipient",
          "type": "address"
        },
        {
          "internalType": "bool",
          "name": "_stake",
          "type": "bool"
        }
      ],
      "name": "redeem",
      "outputs": [
        {
          "internalType": "uint256",
          "name": "",
          "type": "uint256"
        }
      ],
      "stateMutability": "nonpayable",
      "type": "function"
    },
    {
      "inputs": [],
      "name": "renounceManagement",
      "outputs": [],
      "stateMutability": "nonpayable",
      "type": "function"
    },
    {
      "inputs": [
        {
          "internalType": "bool",
          "name": "_addition",
          "type": "bool"
        },
        {
          "internalType": "uint256",
          "name": "_increment",
          "type": "uint256"
        },
        {
          "internalType": "uint256",
          "name": "_target",
          "type": "uint256"
        },
        {
          "internalType": "uint32",
          "name": "_buffer",
          "type": "uint32"
        }
      ],
      "name": "setAdjustment",
      "outputs": [],
      "stateMutability": "nonpayable",
      "type": "function"
    },
    {
      "inputs": [
        {
          "internalType": "enum TimeBondDepository.PARAMETER",
          "name": "_parameter",
          "type": "uint8"
        },
        {
          "internalType": "uint256",
          "name": "_input",
          "type": "uint256"
        }
      ],
      "name": "setBondTerms",
      "outputs": [],
      "stateMutability": "nonpayable",
      "type": "function"
    },
    {
      "inputs": [
        {
          "internalType": "address",
          "name": "_staking",
          "type": "address"
        },
        {
          "internalType": "bool",
          "name": "_helper",
          "type": "bool"
        }
      ],
      "name": "setStaking",
      "outputs": [],
      "stateMutability": "nonpayable",
      "type": "function"
    },
    {
      "inputs": [],
      "name": "staking",
      "outputs": [
        {
          "internalType": "address",
          "name": "",
          "type": "address"
        }
      ],
      "stateMutability": "view",
      "type": "function"
    },
    {
      "inputs": [],
      "name": "stakingHelper",
      "outputs": [
        {
          "internalType": "address",
          "name": "",
          "type": "address"
        }
      ],
      "stateMutability": "view",
      "type": "function"
    },
    {
      "inputs": [],
      "name": "standardizedDebtRatio",
      "outputs": [
        {
          "internalType": "uint256",
          "name": "",
          "type": "uint256"
        }
      ],
      "stateMutability": "view",
      "type": "function"
    },
    {
      "inputs": [],
      "name": "terms",
      "outputs": [
        {
          "internalType": "uint256",
          "name": "controlVariable",
          "type": "uint256"
        },
        {
          "internalType": "uint256",
          "name": "minimumPrice",
          "type": "uint256"
        },
        {
          "internalType": "uint256",
          "name": "maxPayout",
          "type": "uint256"
        },
        {
          "internalType": "uint256",
          "name": "fee",
          "type": "uint256"
        },
        {
          "internalType": "uint256",
          "name": "maxDebt",
          "type": "uint256"
        },
        {
          "internalType": "uint32",
          "name": "vestingTerm",
          "type": "uint32"
        }
      ],
      "stateMutability": "view",
      "type": "function"
    },
    {
      "inputs": [],
      "name": "totalDebt",
      "outputs": [
        {
          "internalType": "uint256",
          "name": "",
          "type": "uint256"
        }
      ],
      "stateMutability": "view",
      "type": "function"
    },
    {
      "inputs": [],
      "name": "treasury",
      "outputs": [
        {
          "internalType": "address",
          "name": "",
          "type": "address"
        }
      ],
      "stateMutability": "view",
      "type": "function"
    },
    {
      "inputs": [],
      "name": "useHelper",
      "outputs": [
        {
          "internalType": "bool",
          "name": "",
          "type": "bool"
        }
      ],
      "stateMutability": "view",
      "type": "function"
    }
  ],
  "bytecode": "0x6101406040523480156200001257600080fd5b5060405162004ad638038062004ad6833981810160405260a08110156200003857600080fd5b810190808051906020019092919080519060200190929190805190602001909291908051906020019092919080519060200190929190505050336000806101000a81548173ffffffffffffffffffffffffffffffffffffffff021916908373ffffffffffffffffffffffffffffffffffffffff16021790555060008054906101000a900473ffffffffffffffffffffffffffffffffffffffff1673ffffffffffffffffffffffffffffffffffffffff16600073ffffffffffffffffffffffffffffffffffffffff167fea8258f2d9ddb679928cf34b78cf645b7feda9acc828e4dd82d014eaae270eba60405160405180910390a3600073ffffffffffffffffffffffffffffffffffffffff168573ffffffffffffffffffffffffffffffffffffffff1614156200016757600080fd5b8473ffffffffffffffffffffffffffffffffffffffff1660808173ffffffffffffffffffffffffffffffffffffffff1660601b81525050600073ffffffffffffffffffffffffffffffffffffffff168473ffffffffffffffffffffffffffffffffffffffff161415620001d957600080fd5b8373ffffffffffffffffffffffffffffffffffffffff1660a08173ffffffffffffffffffffffffffffffffffffffff1660601b81525050600073ffffffffffffffffffffffffffffffffffffffff168373ffffffffffffffffffffffffffffffffffffffff1614156200024b57600080fd5b8273ffffffffffffffffffffffffffffffffffffffff1660c08173ffffffffffffffffffffffffffffffffffffffff1660601b81525050600073ffffffffffffffffffffffffffffffffffffffff168273ffffffffffffffffffffffffffffffffffffffff161415620002bd57600080fd5b8173ffffffffffffffffffffffffffffffffffffffff1660e08173ffffffffffffffffffffffffffffffffffffffff1660601b815250508073ffffffffffffffffffffffffffffffffffffffff166101208173ffffffffffffffffffffffffffffffffffffffff1660601b81525050600073ffffffffffffffffffffffffffffffffffffffff168173ffffffffffffffffffffffffffffffffffffffff161415151561010081151560f81b81525050505050505060805160601c60a05160601c60c05160601c60e05160601c6101005160f81c6101205160601c614691620004456000398061194652806123fd528061290a52508061191852806123cc5280612e6e5250806121495280612518528061281852508061186e5280611cc75280611f9852806120495250806109d752806119825280611a5b5280611d035280611f155280611f5c5280612086528061243952806127bc52508061216b528061276352806129815280612f0b52806130715280613172528061325952806133f852506146916000f3fe608060405234801561001057600080fd5b50600436106102115760003560e01c80638dbdbe6d11610125578063d4d863ce116100ad578063e0176de81161007c578063e0176de814610923578063e392a26214610941578063f5c2ab5b1461095f578063f8e157ea14610983578063fc7b9c18146109b757610211565b8063d4d863ce1461084e578063d50256251461089e578063d7969060146108e5578063d7ccfb0b1461090557610211565b8063b4abccba116100f4578063b4abccba146106b9578063c5332b7c14610713578063cd1234b314610747578063cea55f57146107c0578063cf37a891146107de57610211565b80638dbdbe6d146105a7578063904b3ece1461061357806398fabd3a14610631578063ae9832cf1461066557610211565b806346f68ee9116101a857806361d027b31161017757806361d027b3146104c1578063759076e5146104f557806377b81895146105135780637927ebf814610547578063844b5c7c1461058957610211565b806346f68ee9146103e75780634cf088d91461042b578063507930ec1461045f5780635a96ac0a146104b757610211565b80631e321a0f116101e45780631e321a0f146102e05780631feed31f1461031b5780632f3f470a1461037f578063451ee4a11461039f57610211565b8063016a42841461021657806301b88ee81461024a5780630505c8c9146102a2578063089208d8146102d6575b600080fd5b61021e6109d5565b604051808273ffffffffffffffffffffffffffffffffffffffff16815260200191505060405180910390f35b61028c6004803603602081101561026057600080fd5b81019080803573ffffffffffffffffffffffffffffffffffffffff1690602001909291905050506109f9565b6040518082815260200191505060405180910390f35b6102aa610a90565b604051808273ffffffffffffffffffffffffffffffffffffffff16815260200191505060405180910390f35b6102de610ab9565b005b610319600480360360408110156102f657600080fd5b81019080803560ff16906020019092919080359060200190929190505050610c38565b005b6103696004803603604081101561033157600080fd5b81019080803573ffffffffffffffffffffffffffffffffffffffff169060200190929190803515159060200190929190505050610f47565b6040518082815260200191505060405180910390f35b610387611307565b60405180821515815260200191505060405180910390f35b6103a761131a565b6040518086151581526020018581526020018481526020018363ffffffff1681526020018263ffffffff1681526020019550505050505060405180910390f35b610429600480360360208110156103fd57600080fd5b81019080803573ffffffffffffffffffffffffffffffffffffffff16906020019092919050505061136b565b005b610433611570565b604051808273ffffffffffffffffffffffffffffffffffffffff16815260200191505060405180910390f35b6104a16004803603602081101561047557600080fd5b81019080803573ffffffffffffffffffffffffffffffffffffffff169060200190929190505050611596565b6040518082815260200191505060405180910390f35b6104bf6116c6565b005b6104c961186c565b604051808273ffffffffffffffffffffffffffffffffffffffff16815260200191505060405180910390f35b6104fd611890565b6040518082815260200191505060405180910390f35b61051b6118b3565b604051808273ffffffffffffffffffffffffffffffffffffffff16815260200191505060405180910390f35b6105736004803603602081101561055d57600080fd5b81019080803590602001909291905050506118d9565b6040518082815260200191505060405180910390f35b610591611914565b6040518082815260200191505060405180910390f35b6105fd600480360360608110156105bd57600080fd5b810190808035906020019092919080359060200190929190803573ffffffffffffffffffffffffffffffffffffffff169060200190929190505050611b2a565b6040518082815260200191505060405180910390f35b61061b6123c8565b6040518082815260200191505060405180910390f35b610639612516565b604051808273ffffffffffffffffffffffffffffffffffffffff16815260200191505060405180910390f35b6106b76004803603608081101561067b57600080fd5b810190808035151590602001909291908035906020019092919080359060200190929190803563ffffffff16906020019092919050505061253a565b005b6106fb600480360360208110156106cf57600080fd5b81019080803573ffffffffffffffffffffffffffffffffffffffff16906020019092919050505061275f565b60405180821515815260200191505060405180910390f35b61071b612908565b604051808273ffffffffffffffffffffffffffffffffffffffff16815260200191505060405180910390f35b6107896004803603602081101561075d57600080fd5b81019080803573ffffffffffffffffffffffffffffffffffffffff16906020019092919050505061292c565b604051808581526020018481526020018363ffffffff1681526020018263ffffffff16815260200194505050505060405180910390f35b6107c861297c565b6040518082815260200191505060405180910390f35b61084c600480360360e08110156107f457600080fd5b81019080803590602001909291908035906020019092919080359060200190929190803590602001909291908035906020019092919080359060200190929190803563ffffffff169060200190929190505050612a71565b005b61089c6004803603604081101561086457600080fd5b81019080803573ffffffffffffffffffffffffffffffffffffffff169060200190929190803515159060200190929190505050612c6f565b005b6108a6612e32565b604051808781526020018681526020018581526020018481526020018381526020018263ffffffff168152602001965050505050505060405180910390f35b6108ed612e6c565b60405180821515815260200191505060405180910390f35b61090d612e90565b6040518082815260200191505060405180910390f35b61092b612ef7565b6040518082815260200191505060405180910390f35b610949612fcb565b6040518082815260200191505060405180910390f35b610967613059565b604051808263ffffffff16815260200191505060405180910390f35b61098b61306f565b604051808273ffffffffffffffffffffffffffffffffffffffff16815260200191505060405180910390f35b6109bf613093565b6040518082815260200191505060405180910390f35b7f000000000000000000000000000000000000000000000000000000000000000081565b600080610a0583611596565b90506000600e60008573ffffffffffffffffffffffffffffffffffffffff1673ffffffffffffffffffffffffffffffffffffffff1681526020019081526020016000206000015490506127108210610a5f57809250610a89565b610a86612710610a78848461309990919063ffffffff16565b61311f90919063ffffffff16565b92505b5050919050565b60008060009054906101000a900473ffffffffffffffffffffffffffffffffffffffff16905090565b3373ffffffffffffffffffffffffffffffffffffffff1660008054906101000a900473ffffffffffffffffffffffffffffffffffffffff1673ffffffffffffffffffffffffffffffffffffffff1614610b7a576040517f08c379a00000000000000000000000000000000000000000000000000000000081526004018080602001828103825260208152602001807f4f776e61626c653a2063616c6c6572206973206e6f7420746865206f776e657281525060200191505060405180910390fd5b600073ffffffffffffffffffffffffffffffffffffffff1660008054906101000a900473ffffffffffffffffffffffffffffffffffffffff1673ffffffffffffffffffffffffffffffffffffffff167fea8258f2d9ddb679928cf34b78cf645b7feda9acc828e4dd82d014eaae270eba60405160405180910390a360008060006101000a81548173ffffffffffffffffffffffffffffffffffffffff021916908373ffffffffffffffffffffffffffffffffffffffff160217905550565b3373ffffffffffffffffffffffffffffffffffffffff1660008054906101000a900473ffffffffffffffffffffffffffffffffffffffff1673ffffffffffffffffffffffffffffffffffffffff1614610cf9576040517f08c379a00000000000000000000000000000000000000000000000000000000081526004018080602001828103825260208152602001807f4f776e61626c653a2063616c6c6572206973206e6f7420746865206f776e657281525060200191505060405180910390fd5b60006004811115610d0657fe5b826004811115610d1257fe5b1415610d9d576201fa40811015610d74576040517f08c379a000000000000000000000000000000000000000000000000000000000815260040180806020018281038252602481526020018061460e6024913960400191505060405180910390fd5b80600460050160006101000a81548163ffffffff021916908363ffffffff160217905550610f43565b60016004811115610daa57fe5b826004811115610db657fe5b1415610e43576103e8811115610e34576040517f08c379a00000000000000000000000000000000000000000000000000000000081526004018080602001828103825260208152602001807f5061796f75742063616e6e6f742062652061626f766520312070657263656e7481525060200191505060405180910390fd5b80600460020181905550610f42565b60026004811115610e5057fe5b826004811115610e5c57fe5b1415610ee957612710811115610eda576040517f08c379a000000000000000000000000000000000000000000000000000000000815260040180806020018281038252601c8152602001807f44414f206665652063616e6e6f7420657863656564207061796f75740000000081525060200191505060405180910390fd5b80600460030181905550610f41565b60036004811115610ef657fe5b826004811115610f0257fe5b1415610f1657806004800181905550610f40565b600480811115610f2257fe5b826004811115610f2e57fe5b1415610f3f57806004600101819055505b5b5b5b5b5050565b6000610f516144f6565b600e60008573ffffffffffffffffffffffffffffffffffffffff1673ffffffffffffffffffffffffffffffffffffffff16815260200190815260200160002060405180608001604052908160008201548152602001600182015481526020016002820160009054906101000a900463ffffffff1663ffffffff1663ffffffff1681526020016002820160049054906101000a900463ffffffff1663ffffffff1663ffffffff16815250509050600061100885611596565b9050612710811061110657600e60008673ffffffffffffffffffffffffffffffffffffffff1673ffffffffffffffffffffffffffffffffffffffff16815260200190815260200160002060008082016000905560018201600090556002820160006101000a81549063ffffffff02191690556002820160046101000a81549063ffffffff021916905550508473ffffffffffffffffffffffffffffffffffffffff167f51c99f515c87b0d95ba97f616edd182e8f161c4932eac17c6fefe9dab58b77b183600001516000604051808381526020018281526020019250505060405180910390a26110fd85858460000151613169565b92505050611301565b600061113361271061112584866000015161309990919063ffffffff16565b61311f90919063ffffffff16565b905060405180608001604052806111578386600001516135c090919063ffffffff16565b8152602001846020015181526020014263ffffffff1681526020016111ab61119286604001514263ffffffff1661360a90919063ffffffff16565b866060015163ffffffff1661360a90919063ffffffff16565b63ffffffff16815250600e60008873ffffffffffffffffffffffffffffffffffffffff1673ffffffffffffffffffffffffffffffffffffffff168152602001908152602001600020600082015181600001556020820151816001015560408201518160020160006101000a81548163ffffffff021916908363ffffffff16021790555060608201518160020160046101000a81548163ffffffff021916908363ffffffff1602179055509050508573ffffffffffffffffffffffffffffffffffffffff167f51c99f515c87b0d95ba97f616edd182e8f161c4932eac17c6fefe9dab58b77b182600e60008a73ffffffffffffffffffffffffffffffffffffffff1673ffffffffffffffffffffffffffffffffffffffff16815260200190815260200160002060000154604051808381526020018281526020019250505060405180910390a26112fb868683613169565b93505050505b92915050565b600360149054906101000a900460ff1681565b600a8060000160009054906101000a900460ff16908060010154908060020154908060030160009054906101000a900463ffffffff16908060030160049054906101000a900463ffffffff16905085565b3373ffffffffffffffffffffffffffffffffffffffff1660008054906101000a900473ffffffffffffffffffffffffffffffffffffffff1673ffffffffffffffffffffffffffffffffffffffff161461142c576040517f08c379a00000000000000000000000000000000000000000000000000000000081526004018080602001828103825260208152602001807f4f776e61626c653a2063616c6c6572206973206e6f7420746865206f776e657281525060200191505060405180910390fd5b600073ffffffffffffffffffffffffffffffffffffffff168173ffffffffffffffffffffffffffffffffffffffff1614156114b2576040517f08c379a000000000000000000000000000000000000000000000000000000000815260040180806020018281038252602681526020018061455c6026913960400191505060405180910390fd5b8073ffffffffffffffffffffffffffffffffffffffff1660008054906101000a900473ffffffffffffffffffffffffffffffffffffffff1673ffffffffffffffffffffffffffffffffffffffff167fea8258f2d9ddb679928cf34b78cf645b7feda9acc828e4dd82d014eaae270eba60405160405180910390a380600160006101000a81548173ffffffffffffffffffffffffffffffffffffffff021916908373ffffffffffffffffffffffffffffffffffffffff16021790555050565b600260009054906101000a900473ffffffffffffffffffffffffffffffffffffffff1681565b60006115a06144f6565b600e60008473ffffffffffffffffffffffffffffffffffffffff1673ffffffffffffffffffffffffffffffffffffffff16815260200190815260200160002060405180608001604052908160008201548152602001600182015481526020016002820160009054906101000a900463ffffffff1663ffffffff1663ffffffff1681526020016002820160049054906101000a900463ffffffff1663ffffffff1663ffffffff168152505090506000611671826040015163ffffffff164263ffffffff166135c090919063ffffffff16565b90506000826060015163ffffffff16905060008111156116b9576116b2816116a46127108561309990919063ffffffff16565b61311f90919063ffffffff16565b93506116be565b600093505b505050919050565b600160009054906101000a900473ffffffffffffffffffffffffffffffffffffffff1673ffffffffffffffffffffffffffffffffffffffff163373ffffffffffffffffffffffffffffffffffffffff161461176c576040517f08c379a00000000000000000000000000000000000000000000000000000000081526004018080602001828103825260228152602001806145826022913960400191505060405180910390fd5b600160009054906101000a900473ffffffffffffffffffffffffffffffffffffffff1673ffffffffffffffffffffffffffffffffffffffff1660008054906101000a900473ffffffffffffffffffffffffffffffffffffffff1673ffffffffffffffffffffffffffffffffffffffff167faa151555690c956fc3ea32f106bb9f119b5237a061eaa8557cff3e51e3792c8d60405160405180910390a3600160009054906101000a900473ffffffffffffffffffffffffffffffffffffffff166000806101000a81548173ffffffffffffffffffffffffffffffffffffffff021916908373ffffffffffffffffffffffffffffffffffffffff160217905550565b7f000000000000000000000000000000000000000000000000000000000000000081565b60006118ae61189d612fcb565b600f546135c090919063ffffffff16565b905090565b600360009054906101000a900473ffffffffffffffffffffffffffffffffffffffff1681565b600061190d662386f26fc100006118ff6118fa856118f5612e90565b613654565b613935565b61311f90919063ffffffff16565b9050919050565b60007f000000000000000000000000000000000000000000000000000000000000000015611a5157611a4a6064611a3c7f000000000000000000000000000000000000000000000000000000000000000073ffffffffffffffffffffffffffffffffffffffff166332da80a37f00000000000000000000000000000000000000000000000000000000000000006040518263ffffffff1660e01b8152600401808273ffffffffffffffffffffffffffffffffffffffff16815260200191505060206040518083038186803b1580156119eb57600080fd5b505afa1580156119ff573d6000803e3d6000fd5b505050506040513d6020811015611a1557600080fd5b8101908080519060200190929190505050611a2e612e90565b61309990919063ffffffff16565b61311f90919063ffffffff16565b9050611b27565b611b246064611b167f000000000000000000000000000000000000000000000000000000000000000073ffffffffffffffffffffffffffffffffffffffff1663313ce5676040518163ffffffff1660e01b815260040160206040518083038186803b158015611abf57600080fd5b505afa158015611ad3573d6000803e3d6000fd5b505050506040513d6020811015611ae957600080fd5b810190808051906020019092919050505060ff16600a0a611b08612e90565b61309990919063ffffffff16565b61311f90919063ffffffff16565b90505b90565b60008073ffffffffffffffffffffffffffffffffffffffff168273ffffffffffffffffffffffffffffffffffffffff161415611bce576040517f08c379a000000000000000000000000000000000000000000000000000000000815260040180806020018281038252600f8152602001807f496e76616c69642061646472657373000000000000000000000000000000000081525060200191505060405180910390fd5b611bd6613971565b6004800154600f541115611c52576040517f08c379a00000000000000000000000000000000000000000000000000000000081526004018080602001828103825260148152602001807f4d6178206361706163697479207265616368656400000000000000000000000081525060200191505060405180910390fd5b6000611c5c611914565b90506000611c686139b6565b905080851015611cc3576040517f08c379a00000000000000000000000000000000000000000000000000000000081526004018080602001828103825260238152602001806145eb6023913960400191505060405180910390fd5b60007f000000000000000000000000000000000000000000000000000000000000000073ffffffffffffffffffffffffffffffffffffffff16631eec5a9a7f0000000000000000000000000000000000000000000000000000000000000000896040518363ffffffff1660e01b8152600401808373ffffffffffffffffffffffffffffffffffffffff1681526020018281526020019250505060206040518083038186803b158015611d7457600080fd5b505afa158015611d88573d6000803e3d6000fd5b505050506040513d6020811015611d9e57600080fd5b810190808051906020019092919050505090506000611dbc826118d9565b905062989680811015611e37576040517f08c379a000000000000000000000000000000000000000000000000000000000815260040180806020018281038252600e8152602001807f426f6e6420746f6f20736d616c6c00000000000000000000000000000000000081525060200191505060405180910390fd5b611e3f612ef7565b811115611eb4576040517f08c379a000000000000000000000000000000000000000000000000000000000815260040180806020018281038252600e8152602001807f426f6e6420746f6f206c6172676500000000000000000000000000000000000081525060200191505060405180910390fd5b6000611ee2612710611ed46004600301548561309990919063ffffffff16565b61311f90919063ffffffff16565b90506000611f0b82611efd85876135c090919063ffffffff16565b6135c090919063ffffffff16565b9050611f5a33308c7f000000000000000000000000000000000000000000000000000000000000000073ffffffffffffffffffffffffffffffffffffffff16613a3b909392919063ffffffff16565b7f000000000000000000000000000000000000000000000000000000000000000073ffffffffffffffffffffffffffffffffffffffff1663095ea7b37f00000000000000000000000000000000000000000000000000000000000000008c6040518363ffffffff1660e01b8152600401808373ffffffffffffffffffffffffffffffffffffffff16815260200182815260200192505050602060405180830381600087803b15801561200b57600080fd5b505af115801561201f573d6000803e3d6000fd5b505050506040513d602081101561203557600080fd5b8101908080519060200190929190505050507f000000000000000000000000000000000000000000000000000000000000000073ffffffffffffffffffffffffffffffffffffffff1663bc157ac18b7f0000000000000000000000000000000000000000000000000000000000000000846040518463ffffffff1660e01b8152600401808481526020018373ffffffffffffffffffffffffffffffffffffffff1681526020018281526020019350505050602060405180830381600087803b15801561210057600080fd5b505af1158015612114573d6000803e3d6000fd5b505050506040513d602081101561212a57600080fd5b810190808051906020019092919050505050600082146121b0576121af7f0000000000000000000000000000000000000000000000000000000000000000837f000000000000000000000000000000000000000000000000000000000000000073ffffffffffffffffffffffffffffffffffffffff16613afc9092919063ffffffff16565b5b6121c584600f54613b9e90919063ffffffff16565b600f81905550604051806080016040528061222b85600e60008d73ffffffffffffffffffffffffffffffffffffffff1673ffffffffffffffffffffffffffffffffffffffff16815260200190815260200160002060000154613b9e90919063ffffffff16565b81526020018781526020014263ffffffff168152602001600460050160009054906101000a900463ffffffff1663ffffffff16815250600e60008a73ffffffffffffffffffffffffffffffffffffffff1673ffffffffffffffffffffffffffffffffffffffff168152602001908152602001600020600082015181600001556020820151816001015560408201518160020160006101000a81548163ffffffff021916908363ffffffff16021790555060608201518160020160046101000a81548163ffffffff021916908363ffffffff16021790555090505085612334600460050160009054906101000a900463ffffffff1663ffffffff1642613b9e90919063ffffffff16565b847f1fec6dc81f140574bf43f6b1e420ae1dd47928b9d57db8cbd7b8611063b85ae58d6040518082815260200191505060405180910390a461237461297c565b61237c6139b6565b612384611914565b7f375b221f40939bfd8f49723a17cf7bc6d576ebf72efe2cc3e991826f5b3f390a60405160405180910390a46123b8613c26565b8296505050505050509392505050565b60007f00000000000000000000000000000000000000000000000000000000000000001561250857612501633b9aca006124f37f000000000000000000000000000000000000000000000000000000000000000073ffffffffffffffffffffffffffffffffffffffff166332da80a37f00000000000000000000000000000000000000000000000000000000000000006040518263ffffffff1660e01b8152600401808273ffffffffffffffffffffffffffffffffffffffff16815260200191505060206040518083038186803b1580156124a257600080fd5b505afa1580156124b6573d6000803e3d6000fd5b505050506040513d60208110156124cc57600080fd5b81019080805190602001909291905050506124e561297c565b61309990919063ffffffff16565b61311f90919063ffffffff16565b9050612513565b61251061297c565b90505b90565b7f000000000000000000000000000000000000000000000000000000000000000081565b3373ffffffffffffffffffffffffffffffffffffffff1660008054906101000a900473ffffffffffffffffffffffffffffffffffffffff1673ffffffffffffffffffffffffffffffffffffffff16146125fb576040517f08c379a00000000000000000000000000000000000000000000000000000000081526004018080602001828103825260208152602001807f4f776e61626c653a2063616c6c6572206973206e6f7420746865206f776e657281525060200191505060405180910390fd5b6126286103e861261a601960046000015461309990919063ffffffff16565b61311f90919063ffffffff16565b83111561269d576040517f08c379a00000000000000000000000000000000000000000000000000000000081526004018080602001828103825260138152602001807f496e6372656d656e7420746f6f206c617267650000000000000000000000000081525060200191505060405180910390fd5b6040518060a0016040528085151581526020018481526020018381526020018263ffffffff1681526020014263ffffffff16815250600a60008201518160000160006101000a81548160ff021916908315150217905550602082015181600101556040820151816002015560608201518160030160006101000a81548163ffffffff021916908363ffffffff16021790555060808201518160030160046101000a81548163ffffffff021916908363ffffffff16021790555090505050505050565b60007f000000000000000000000000000000000000000000000000000000000000000073ffffffffffffffffffffffffffffffffffffffff168273ffffffffffffffffffffffffffffffffffffffff1614156127ba57600080fd5b7f000000000000000000000000000000000000000000000000000000000000000073ffffffffffffffffffffffffffffffffffffffff168273ffffffffffffffffffffffffffffffffffffffff16141561281357600080fd5b6128ff7f00000000000000000000000000000000000000000000000000000000000000008373ffffffffffffffffffffffffffffffffffffffff166370a08231306040518263ffffffff1660e01b8152600401808273ffffffffffffffffffffffffffffffffffffffff16815260200191505060206040518083038186803b15801561289e57600080fd5b505afa1580156128b2573d6000803e3d6000fd5b505050506040513d60208110156128c857600080fd5b81019080805190602001909291905050508473ffffffffffffffffffffffffffffffffffffffff16613afc9092919063ffffffff16565b60019050919050565b7f000000000000000000000000000000000000000000000000000000000000000081565b600e6020528060005260406000206000915090508060000154908060010154908060020160009054906101000a900463ffffffff16908060020160049054906101000a900463ffffffff16905084565b6000807f000000000000000000000000000000000000000000000000000000000000000073ffffffffffffffffffffffffffffffffffffffff166318160ddd6040518163ffffffff1660e01b815260040160206040518083038186803b1580156129e557600080fd5b505afa1580156129f9573d6000803e3d6000fd5b505050506040513d6020811015612a0f57600080fd5b81019080805190602001909291905050509050612a6b670de0b6b3a7640000612a5d612a58612a52633b9aca00612a44611890565b61309990919063ffffffff16565b85613654565b613935565b61311f90919063ffffffff16565b91505090565b3373ffffffffffffffffffffffffffffffffffffffff1660008054906101000a900473ffffffffffffffffffffffffffffffffffffffff1673ffffffffffffffffffffffffffffffffffffffff1614612b32576040517f08c379a00000000000000000000000000000000000000000000000000000000081526004018080602001828103825260208152602001807f4f776e61626c653a2063616c6c6572206973206e6f7420746865206f776e657281525060200191505060405180910390fd5b600060046000015414612bad576040517f08c379a00000000000000000000000000000000000000000000000000000000081526004018080602001828103825260208152602001807f426f6e6473206d75737420626520696e697469616c697a65642066726f6d203081525060200191505060405180910390fd5b6040518060c001604052808881526020018781526020018681526020018581526020018481526020018263ffffffff168152506004600082015181600001556020820151816001015560408201518160020155606082015181600301556080820151816004015560a08201518160050160006101000a81548163ffffffff021916908363ffffffff16021790555090505081600f8190555042601060006101000a81548163ffffffff021916908363ffffffff16021790555050505050505050565b3373ffffffffffffffffffffffffffffffffffffffff1660008054906101000a900473ffffffffffffffffffffffffffffffffffffffff1673ffffffffffffffffffffffffffffffffffffffff1614612d30576040517f08c379a00000000000000000000000000000000000000000000000000000000081526004018080602001828103825260208152602001807f4f776e61626c653a2063616c6c6572206973206e6f7420746865206f776e657281525060200191505060405180910390fd5b600073ffffffffffffffffffffffffffffffffffffffff168273ffffffffffffffffffffffffffffffffffffffff161415612d6a57600080fd5b8015612dd1576001600360146101000a81548160ff02191690831515021790555081600360006101000a81548173ffffffffffffffffffffffffffffffffffffffff021916908373ffffffffffffffffffffffffffffffffffffffff160217905550612e2e565b6000600360146101000a81548160ff02191690831515021790555081600260006101000a81548173ffffffffffffffffffffffffffffffffffffffff021916908373ffffffffffffffffffffffffffffffffffffffff1602179055505b5050565b60048060000154908060010154908060020154908060030154908060040154908060050160009054906101000a900463ffffffff16905086565b7f000000000000000000000000000000000000000000000000000000000000000081565b6000612edc62989680612ece633b9aca00612ec0612eac61297c565b60046000015461309990919063ffffffff16565b613b9e90919063ffffffff16565b61311f90919063ffffffff16565b9050600460010154811015612ef45760046001015490505b90565b6000612fc6620186a0612fb86004600201547f000000000000000000000000000000000000000000000000000000000000000073ffffffffffffffffffffffffffffffffffffffff166318160ddd6040518163ffffffff1660e01b815260040160206040518083038186803b158015612f6f57600080fd5b505afa158015612f83573d6000803e3d6000fd5b505050506040513d6020811015612f9957600080fd5b810190808051906020019092919050505061309990919063ffffffff16565b61311f90919063ffffffff16565b905090565b600080612ff9601060009054906101000a900463ffffffff164263ffffffff1661360a90919063ffffffff16565b9050613043600460050160009054906101000a900463ffffffff1663ffffffff166130358363ffffffff16600f5461309990919063ffffffff16565b61311f90919063ffffffff16565b9150600f5482111561305557600f5491505b5090565b601060009054906101000a900463ffffffff1681565b7f000000000000000000000000000000000000000000000000000000000000000081565b600f5481565b6000808314156130ac5760009050613119565b60008284029050828482816130bd57fe5b0414613114576040517f08c379a00000000000000000000000000000000000000000000000000000000081526004018080602001828103825260218152602001806145ca6021913960400191505060405180910390fd5b809150505b92915050565b600061316183836040518060400160405280601a81526020017f536166654d6174683a206469766973696f6e206279207a65726f000000000000815250613dd2565b905092915050565b600082613242577f000000000000000000000000000000000000000000000000000000000000000073ffffffffffffffffffffffffffffffffffffffff1663a9059cbb85846040518363ffffffff1660e01b8152600401808373ffffffffffffffffffffffffffffffffffffffff16815260200182815260200192505050602060405180830381600087803b15801561320157600080fd5b505af1158015613215573d6000803e3d6000fd5b505050506040513d602081101561322b57600080fd5b8101908080519060200190929190505050506135b6565b600360149054906101000a900460ff16156133f6577f000000000000000000000000000000000000000000000000000000000000000073ffffffffffffffffffffffffffffffffffffffff1663095ea7b3600360009054906101000a900473ffffffffffffffffffffffffffffffffffffffff16846040518363ffffffff1660e01b8152600401808373ffffffffffffffffffffffffffffffffffffffff16815260200182815260200192505050602060405180830381600087803b15801561330a57600080fd5b505af115801561331e573d6000803e3d6000fd5b505050506040513d602081101561333457600080fd5b810190808051906020019092919050505050600360009054906101000a900473ffffffffffffffffffffffffffffffffffffffff1673ffffffffffffffffffffffffffffffffffffffff16637acb775783866040518363ffffffff1660e01b8152600401808381526020018273ffffffffffffffffffffffffffffffffffffffff16815260200192505050600060405180830381600087803b1580156133d957600080fd5b505af11580156133ed573d6000803e3d6000fd5b505050506135b5565b7f000000000000000000000000000000000000000000000000000000000000000073ffffffffffffffffffffffffffffffffffffffff1663095ea7b3600260009054906101000a900473ffffffffffffffffffffffffffffffffffffffff16846040518363ffffffff1660e01b8152600401808373ffffffffffffffffffffffffffffffffffffffff16815260200182815260200192505050602060405180830381600087803b1580156134a957600080fd5b505af11580156134bd573d6000803e3d6000fd5b505050506040513d60208110156134d357600080fd5b810190808051906020019092919050505050600260009054906101000a900473ffffffffffffffffffffffffffffffffffffffff1673ffffffffffffffffffffffffffffffffffffffff16637acb775783866040518363ffffffff1660e01b8152600401808381526020018273ffffffffffffffffffffffffffffffffffffffff16815260200192505050602060405180830381600087803b15801561357857600080fd5b505af115801561358c573d6000803e3d6000fd5b505050506040513d60208110156135a257600080fd5b8101908080519060200190929190505050505b5b8190509392505050565b600061360283836040518060400160405280601e81526020017f536166654d6174683a207375627472616374696f6e206f766572666c6f770000815250613e98565b905092915050565b600061364c83836040518060400160405280601e81526020017f536166654d6174683a207375627472616374696f6e206f766572666c6f770000815250613f58565b905092915050565b61365c61452a565b600082116136b5576040517f08c379a00000000000000000000000000000000000000000000000000000000081526004018080602001828103825260268152602001806145a46026913960400191505060405180910390fd5b60008314156136f357604051806020016040528060007bffffffffffffffffffffffffffffffffffffffffffffffffffffffff16815250905061392f565b7fffffffffffffffffffffffffffffffffffffffffffffffffffffffffffffffff71ffffffffffffffffffffffffffffffffffff16831161382c57600082607060ff1685901b8161374057fe5b0490507fffffffffffffffffffffffffffffffffffffffffffffffffffffffffffffffff7bffffffffffffffffffffffffffffffffffffffffffffffffffffffff168111156137f7576040517f08c379a000000000000000000000000000000000000000000000000000000000815260040180806020018281038252601e8152602001807f4669786564506f696e743a3a6672616374696f6e3a206f766572666c6f77000081525060200191505060405180910390fd5b6040518060200160405280827bffffffffffffffffffffffffffffffffffffffffffffffffffffffff1681525091505061392f565b6000613848846e01000000000000000000000000000085614024565b90507fffffffffffffffffffffffffffffffffffffffffffffffffffffffffffffffff7bffffffffffffffffffffffffffffffffffffffffffffffffffffffff168111156138fe576040517f08c379a000000000000000000000000000000000000000000000000000000000815260040180806020018281038252601e8152602001807f4669786564506f696e743a3a6672616374696f6e3a206f766572666c6f77000081525060200191505060405180910390fd5b6040518060200160405280827bffffffffffffffffffffffffffffffffffffffffffffffffffffffff168152509150505b92915050565b60006612725dd1d243ab82600001517bffffffffffffffffffffffffffffffffffffffffffffffffffffffff168161396957fe5b049050919050565b61398d61397c612fcb565b600f546135c090919063ffffffff16565b600f8190555042601060006101000a81548163ffffffff021916908363ffffffff160217905550565b6000613a02629896806139f4633b9aca006139e66139d261297c565b60046000015461309990919063ffffffff16565b613b9e90919063ffffffff16565b61311f90919063ffffffff16565b9050600460010154811015613a1e576004600101549050613a38565b600060046001015414613a375760006004600101819055505b5b90565b613af6846323b872dd60e01b858585604051602401808473ffffffffffffffffffffffffffffffffffffffff1681526020018373ffffffffffffffffffffffffffffffffffffffff1681526020018281526020019350505050604051602081830303815290604052907bffffffffffffffffffffffffffffffffffffffffffffffffffffffff19166020820180517bffffffffffffffffffffffffffffffffffffffffffffffffffffffff83818316178352505050506140e6565b50505050565b613b998363a9059cbb60e01b8484604051602401808373ffffffffffffffffffffffffffffffffffffffff16815260200182815260200192505050604051602081830303815290604052907bffffffffffffffffffffffffffffffffffffffffffffffffffffffff19166020820180517bffffffffffffffffffffffffffffffffffffffffffffffffffffffff83818316178352505050506140e6565b505050565b600080828401905083811015613c1c576040517f08c379a000000000000000000000000000000000000000000000000000000000815260040180806020018281038252601b8152602001807f536166654d6174683a206164646974696f6e206f766572666c6f77000000000081525060200191505060405180910390fd5b8091505092915050565b6000613c71600a60030160009054906101000a900463ffffffff1663ffffffff16600a60030160049054906101000a900463ffffffff1663ffffffff16613b9e90919063ffffffff16565b90506000600a6001015414158015613c895750804210155b15613dcf5760006004600001549050600a60000160009054906101000a900460ff1615613cf857613ccd600a60010154600460000154613b9e90919063ffffffff16565b600460000181905550600a6002015460046000015410613cf3576000600a600101819055505b613d3c565b613d15600a600101546004600001546135c090919063ffffffff16565b600460000181905550600a6002015460046000015411613d3b576000600a600101819055505b5b42600a60030160046101000a81548163ffffffff021916908363ffffffff1602179055507fb923e581a0f83128e9e1d8297aa52b18d6744310476e0b54509c054cd7a93b2a81600460000154600a60010154600a60000160009054906101000a900460ff1660405180858152602001848152602001838152602001821515815260200194505050505060405180910390a1505b50565b60008083118290613e7e576040517f08c379a00000000000000000000000000000000000000000000000000000000081526004018080602001828103825283818151815260200191508051906020019080838360005b83811015613e43578082015181840152602081019050613e28565b50505050905090810190601f168015613e705780820380516001836020036101000a031916815260200191505b509250505060405180910390fd5b506000838581613e8a57fe5b049050809150509392505050565b6000838311158290613f45576040517f08c379a00000000000000000000000000000000000000000000000000000000081526004018080602001828103825283818151815260200191508051906020019080838360005b83811015613f0a578082015181840152602081019050613eef565b50505050905090810190601f168015613f375780820380516001836020036101000a031916815260200191505b509250505060405180910390fd5b5060008385039050809150509392505050565b60008363ffffffff168363ffffffff1611158290614011576040517f08c379a00000000000000000000000000000000000000000000000000000000081526004018080602001828103825283818151815260200191508051906020019080838360005b83811015613fd6578082015181840152602081019050613fbb565b50505050905090810190601f1680156140035780820380516001836020036101000a031916815260200191505b509250505060405180910390fd5b5060008385039050809150509392505050565b600080600061403386866141d5565b915091506000848061404157fe5b868809905082811115614055576001820391505b80830392508482106140cf576040517f08c379a000000000000000000000000000000000000000000000000000000000815260040180806020018281038252601a8152602001807f46756c6c4d6174683a3a6d756c4469763a206f766572666c6f7700000000000081525060200191505060405180910390fd5b6140da838387614228565b93505050509392505050565b6060614148826040518060400160405280602081526020017f5361666545524332303a206c6f772d6c6576656c2063616c6c206661696c65648152508573ffffffffffffffffffffffffffffffffffffffff166142c59092919063ffffffff16565b90506000815111156141d05780806020019051602081101561416957600080fd5b81019080805190602001909291905050506141cf576040517f08c379a000000000000000000000000000000000000000000000000000000000815260040180806020018281038252602a815260200180614632602a913960400191505060405180910390fd5b5b505050565b60008060007fffffffffffffffffffffffffffffffffffffffffffffffffffffffffffffffff8061420257fe5b84860990508385029250828103915082811015614220576001820391505b509250929050565b600080826000038316905080838161423c57fe5b04925080858161424857fe5b049450600181826000038161425957fe5b04018402850194506000600190508084026002038102905080840260020381029050808402600203810290508084026002038102905080840260020381029050808402600203810290508084026002038102905080840260020381029050808602925050509392505050565b60606142d484846000856142dd565b90509392505050565b60606142e8856144e3565b61435a576040517f08c379a000000000000000000000000000000000000000000000000000000000815260040180806020018281038252601d8152602001807f416464726573733a2063616c6c20746f206e6f6e2d636f6e747261637400000081525060200191505060405180910390fd5b600060608673ffffffffffffffffffffffffffffffffffffffff1685876040518082805190602001908083835b602083106143aa5780518252602082019150602081019050602083039250614387565b6001836020036101000a03801982511681845116808217855250505050505090500191505060006040518083038185875af1925050503d806000811461440c576040519150601f19603f3d011682016040523d82523d6000602084013e614411565b606091505b509150915081156144265780925050506144db565b6000815111156144395780518082602001fd5b836040517f08c379a00000000000000000000000000000000000000000000000000000000081526004018080602001828103825283818151815260200191508051906020019080838360005b838110156144a0578082015181840152602081019050614485565b50505050905090810190601f1680156144cd5780820380516001836020036101000a031916815260200191505b509250505060405180910390fd5b949350505050565b600080823b905060008111915050919050565b60405180608001604052806000815260200160008152602001600063ffffffff168152602001600063ffffffff1681525090565b604051806020016040528060007bffffffffffffffffffffffffffffffffffffffffffffffffffffffff168152509056fe4f776e61626c653a206e6577206f776e657220697320746865207a65726f20616464726573734f776e61626c653a206d757374206265206e6577206f776e657220746f2070756c6c4669786564506f696e743a3a6672616374696f6e3a206469766973696f6e206279207a65726f536166654d6174683a206d756c7469706c69636174696f6e206f766572666c6f77536c697070616765206c696d69743a206d6f7265207468616e206d617820707269636556657374696e67206d757374206265206c6f6e676572207468616e20333620686f7572735361666545524332303a204552433230206f7065726174696f6e20646964206e6f742073756363656564a264697066735822122082f2acee037c7400c685d1be9fd9316e5d5999840cafb84131b4096992b3e47e64736f6c63430007050033",
  "linkReferences": {},
  "deployedLinkReferences": {}
}